:020000042004D6
:1000000000000820AD0104201B0104201D01042074
:100010001101042011010420110104201101042008
:100020001901042019010420190104201F010420D2
:1000300011010420190104202101042023010420BE
:1000400011010420110104201101042011010420D8
:1000500011010420110104201101042011010420C8
:1000600011010420110104201101042011010420B8
:1000700011010420110104201101042011010420A8
:100080001101042011010420110104201101042098
:100090001101042011010420110104201101042088
:1000A0001101042011010420110104201101042078
:1000B0001101042011010420110104201101042068
:1000C0001101042011010420110104201101042058
:1000D0001101042011010420110104201101042048
:1000E0001101042011010420110104201101042038
:1000F0001101042011010420110104201101042028
:100100001101042011010420110104201101042017
:10011000EFF30580103800BE00BE00BE00BE00BE7A
:1001200000BE00BE06005250ABB36053C01C04209A
:1001300006005250861C0302D01C042006005250B8
:100140005422A29DDC1C0420F2EB8871041D0420C3
:10015000181D0420D801042090A31AE747414D45FB
:10016000F1030420D3DEFFFF42012110030200004F
:1001700000000420FF03000000000000793512ABEE
:1001800020485FF44041016030EE10F704D440ECA9
:10019000800740EC810740BF002080F30A881A489E
:1001A0001A49086006C881F3088810474FF050408C
:1001B000006810B14FF00000F2E71549154A002021
:1001C00000E001C19142FCD1134988471349884797
:1001D0001349884700BEFDE7181D0420181D0420A0
:1001E000BC1D04200000082000000820000008209A
:1001F0000010082000100820001008200000000057
:100200007047000088ED00E00000042008ED00E0E9
:10021000BC1D0420D81F0420ED18042085030420F1
:10022000E51804204FF050412DE9F0410027044625
:1002300016461D46D1F8008009E02368C3E88F7F89
:100240008CF310883046294601F0C6F8F0B92168D1
:10025000EFF3108C72B6D1E8CF2F0123002AFAD128
:10026000C1E8423F002AF6D1BFF35F8F94F904E062
:10027000BEF1000FE1DA0023226884F80480C2E8AE
:100280008F3F8CF310880120BDE8F0810020BDE88D
:10029000F08100BF30B501460468EFF3108C72B6F0
:1002A000D4E8CFEF0125BEF1000FF9D1C4E84E5FCD
:1002B000BEF1000FF4D1BFF35F8F90F90440002C22
:1002C00011DB00210568C5E88F1F8CF310884FF003
:1002D000504C9CF900C0A44501D1084630BDBDE892
:1002E0003040FFF79FBF4FF05040006800230A687E
:1002F0000871C2E88F3F8CF31088012030BD00BF29
:100300000368EFF3108272B6D3E8CFCF0121BCF1BE
:10031000000FF9D1C3E84C1FBCF1000FF4D1BFF3BB
:100320005F8F4FF0FF0C0023016880F804C0C1E824
:100330008F3F82F3108840BF704700BF152800D060
:100340007047F8B501F0C0F84FF0000C0A4C0B4DA7
:10035000D4E900670246801B8E460B4661EB07011D
:1003600085427CEB010C06D20548017881F0010141
:100370000170C4E90023F8BD401F0420A0860100DD
:10038000181D042080B5172000F08CF917244FF0B9
:10039000010747EC4440152000F084F915264FF082
:1003A000000545EC446001223046002100F010F9C0
:1003B0003046012208210C4B00F01EF90B4E337819
:1003C00063B147EC4040FA2000F0F0FF45EC4040BC
:1003D000FA2000F0EBFF3378002BF2D145EC4040DF
:1003E000322000F0E3FFEAE73D030420181D04205B
:1003F0000848094A08B5904207D2013A121A22F079
:1004000003020021043201F0B5FB01F06FFAFFF79F
:10041000B9FF00BFBC1D0420D81F04204FF050407E
:100420002DE9F84F6549D0F800A0654A654B51F8B1
:100430002A70BAF1000F0CBF904698464FB30026C1
:10044000DFF884B1DFF88491F3080C3358F82340C7
:1004500035460836CCB114F00F0110D05BF82A20D5
:1004600005F00703EA40E8089B00D20701FA03F30E
:1004700000F18C0C03D4284649F82C30B8472409E5
:1004800005F1010501D0B542E5D3202EDCD1BDE850
:10049000F88F4D48F90801F10C0358F823303A461B
:1004A0000837002B71D013F00F0508D050F82A4000
:1004B000D440E40703D4454C8C3144F82150190949
:1004C00063D011F00F010BD050F82A40551CEC40BE
:1004D000E60705D4EC083D4D09018C3445F824109D
:1004E000190A52D011F00F010BD050F82A40951C78
:1004F000EC40E40705D4EC08344D09028C3445F88F
:100500002410190B41D011F00F0105D050F82A40EA
:10051000D51CEC40E6073CD5190C36D011F00F0184
:1005200006D0294C54F82A50141DE540ED0737D564
:10053000190D2AD011F00F0106D0234C54F82A507F
:10054000541DE540EE0732D5190E1ED011F00F01F3
:100550000CD01D4C54F82A50941DE540ED0705D4ED
:100560001A4DE40809068C3445F824101B0F02F1DB
:1005700007020AD050F82A10D140C90705D4134900
:10058000D2081B078C3241F82230202F82D1BDE8DF
:10059000F88FEC080D4D09038C3445F82410BBE7A7
:1005A0000A4DE40809048C3445F82410C0E7074DCF
:1005B000E40809058C3445F82410C5E7681F0420B9
:1005C0004882024090820240C81F042000800240FE
:1005D00010B4084CC90041EA820154F8202004EB11
:1005E0008003514003F5805301F00C015DF8044B8A
:1005F00019607047048003402DE9F0434FF05049E3
:100600001646DFF89C80D9F800201F4658F82230A3
:1006100004460D4683B053B3002F34D04FF05043FF
:1006200048F822701A681B491B4B002A18BF0B465A
:10063000E20804F00704A40005FA04F4A1F524710B
:1006400002F18C0041F8204003EB82034EB10121FE
:10065000152003F500531C6003B0BDE8F04300F023
:10066000C9B803F540531C6003B0BDE8F083002F08
:10067000D9D048F8227015201A46084900F000F930
:10068000D9F80020CFE715200449019200F0ECF9D9
:10069000019AC3E790820240488202401D04042070
:1006A000681F042030B44FF0000343EC440043ECD7
:1006B000400005254FF480740B4BC20053F8201006
:1006C00003EB800081F0400102F1804303F5203309
:1006D00001F0C00200F5805100F540500A605D60F5
:1006E000046030BC704700BF048003400FB400B505
:1006F00083B0049C074801F01FFA3CB105A92046CD
:10070000019101F0D5F8044801F016FA012001F03A
:10071000E7F800BF741C0420841C042070B58646D2
:10072000EFF3108572B6124CD4E8CF6F0120002E83
:10073000FAD1C4E8460F002EF6D1BFF35F8F4FF019
:10074000010CC80801F007030CFA03F31EF800C0FF
:100750001CEA030608D14CEA030C0EF800C0C4E8FA
:100760008F6F85F3108870BD1046FFF7BFFF00BF85
:10077000531F0420044A1078431CDBB2182B28BFF7
:1007800010231370704700BF191D04204FF0E022A2
:10079000936843F000539360704700BF0021044BFF
:1007A00003F12002C3E88F1F01339342FAD170474F
:1007B000481F04204FF0E0234FF08032C3F800249C
:1007C000C3F80424C3F80824C3F80C24C3F8102485
:1007D000C3F81424C3F81824C3F81C24C3F8202435
:1007E000C3F82424C3F82824C3F82C24C3F83024E5
:1007F00062B67047012300F01F029340400941B1E7
:10080000800000F1604000F56140C0F88031036075
:100810007047024A203042F82030704700E100E083
:10082000F8B50D46EFF3108772B6124ED6E8CF2F0B
:100830000123002AFAD1C6E8423F002AF6D1BFF3CD
:100840005F8F0D4B00F110049B680C4A53F8243065
:10085000934203D0994201D000F050FF064B9B68B1
:1008600043F82450BFF35F8F0023C6E88F3F87F320
:100870001088F8BD511F042000ED00E01101042094
:100880002DE9F04F81468B46164683B0EFF3108377
:1008900072B6DFF8D0A10093DAE8CF1F0123002958
:1008A000FAD1CAE8413F0029F6D1BFF35F8F664B0A
:1008B00093F90040002CC0F2A080644D04EB440783
:1008C00005EB870898F8061009F110091970604BBC
:1008D000BF009B6853F829006300411B2F292FD9C3
:1008E0005C49884240F0A4801C445B4B02372F4493
:1008F000043BDB1BC3F34A036FEAC3434FF42141BC
:100900006FEAD34325F8241005EB840463804BF68B
:100910000153A380FF2348F00100E671C4F808B03A
:10092000A3714B4B9B6843F82900BFF35F8F0023F3
:10093000CAE88F3F009B83F3108803B0BDE8F08FB7
:1009400020F0010E9EF80710B1422ED84FF421433B
:10095000EB53414BB91C2944043B04375B1A2F4429
:10096000AEF104013D4CC91BC1F34A012143A8F873
:100970000410C3F34A033A492343A8F802304AF665
:10098000AA2073465B1B5B415843000D88F8076043
:1009900088F80600C8F808B048F00100CEF800104A
:1009A000BFE7D179B1422ED996469EF906C00CEB2D
:1009B0004C02BCF1000F05EB8202F2DA4BF601515A
:1009C0000EF10402A8F10407BF1AC7F34A076FEA41
:1009D000C7476FEAD7478EF8064003EB0408204C60
:1009E00005EB8803AEF8047045F82840998083F839
:1009F00006C0DE71C3F808B093E700F07FFE124B2B
:100A000093F9004059E7724632F8041F490514D49F
:100A10004915023102EB410101916FF00701C91B39
:100A2000019F491B3944C1F34A0141F46041C9E7C0
:100A3000019300F063FE019B56E701F5FF1101F5FC
:100A4000FF511F31E4E700BFD41F04201C1D042008
:100A500000ED00E0110104204C1D042000E0FFFF28
:100A600001488047511F04202DE9F04F83B0EFF378
:100A7000108A72B6744ED6E8CF2F0123002AFAD11D
:100A8000C6E8423F002AF6D1BFF35F8F6F4B00F1FB
:100A900010089B686E4A53F8285095423FD08D420B
:100AA0000C464AD06B4FEB1B2F2B38D801214FEA55
:100AB00050194FEA890909F1604909F5614900F0C7
:100AC0001F0301FA03F0D9F80030C9F8800000EAEA
:100AD000030BBFF35F8FEFF30581C9B279B388458C
:100AE00077D125F0010EDEF808C0644505D17CE021
:100AF000D3F808C0644532D09E469EF9062002EB2A
:100B00004203002A07EB8303F2DA644500F0818098
:100B1000BBF1000F20D0C9F88001C9F800004B4B91
:100B20009B6843F82850BFF35F8F0023C6E88F3FD0
:100B30008AF3108803B0BDE8F08F1546EFE725F083
:100B4000010EDEF808C06445D7D19EF90640734611
:100B5000002C08DA154666E0C9F88000DFE793F953
:100B60000640002C56DB04EB440C07EB8C0CDCF845
:100B7000082061009A609CF80720DA719CF9062031
:100B8000002A9A715DDBBCF80420520504D502F5F9
:100B9000FF1202F5FF521F32521502F1020C4FF004
:100BA000040E0C2212FB04E202EB4C026FF0070C65
:100BB0003A44ACEB030C6244C2F34A0242F4604292
:100BC0009A80254B21441A7807EB81011C708A71A9
:100BD0009EE7CDE9000100F091FDDDE9000125F07F
:100BE000010EDEF808C0644587D19EF906407346C1
:100BF000002CB8DA194A1A4CD21A083AC2F30A3150
:100C00006FEA01516FEA115144EA5202DA80998089
:100C10007EE773460029EDD1FF228EF806204BF6C1
:100C20000152AEF804200C4C4AF6AA2294F800C0F7
:100C30001946C91B49414A43120D83F806C0227068
:100C400066E74BF60152BBE7511F042000ED00E0C0
:100C5000110104201C1D0420D41F0420561D042053
:100C600000F8FFFFF0B5EFF30585EDB2EFF3108C60
:100C700072B62649D1E8CF2F0123002AFAD1C1E864
:100C8000423F002AF6D1BFF35F8F214E40F0010EA4
:100C9000B4684AF6AA2354F825701E4A0446A41ADA
:100CA000644163431B0D77455BB21BD092F906404C
:100CB0009C421CD092F912409C4223D092F91E40D3
:100CC0009C4221D092F92A409C4208BF03240FD0B5
:100CD000114A0024157813708571C1E88F4F8CF389
:100CE0001088F0BDB2680D4C42F82540F0E70024B2
:100CF00004EB440402EB8402FF2494714BF601548C
:100D00009480E5E70124F3E70224F1E7511F042072
:100D100000ED00E01C1D0420D41F0420110104205C
:100D2000014B0B4403607047481F042070B5104C02
:100D3000104DAC420ED2FF26236863B1FFF71AFDB7
:100D400001462046FFF7ECFFA680BFF35F8F083413
:100D5000AC42F1D370BDFFF70DFD01462046FFF711
:100D6000DFFF2671BFF35F8F0834AC42E4D370BD60
:100D70007C1D0420841D04200D4B1A68EFF31081A4
:100D800072B6D2E8CFCF0120BCF1000FF9D1C2E892
:100D90004C0FBCF1000FF4D1BFF35F8F00221B6832
:100DA000C3E88F2F81F3108840BF002000217047D7
:100DB000D01F0420000000002DE9F04F2DED028B24
:100DC00085B0EFF30583DBB2103B9A0818BF012210
:100DD0004FF0010103F0030018BFAF4DAF4B08BF48
:100DE000AF4D00EB820253F8226001FA00FB05F5DB
:100DF00041539FEDA78B0190C3F804B02EE0B38858
:100E0000180440F19280B379002B40F0DC80B6F9F1
:100E100008100029C0F21D81736901EB410103EB49
:100E2000C103D3E90247B7F1FF3F08BFB4F1FF3F69
:100E30000DD0019B05EB8301AB6A0A69D21AE31A54
:100E4000934203D32B6A13EA0B0F00D10C6128469F
:100E500000F032FBA042B941C0F2FB80B6F9083085
:100E6000C5F83CB0002B0093C9DBD6F8149003EB17
:100E7000430A284609EBCA07D7E9024800F01CFBE1
:100E8000A04271EB0801BADBB8F1000FC0F2C380D9
:100E9000D7E90431834A934200F0ED807A88B6F9AD
:100EA000080092B242EA0040984702460B4652EAD6
:100EB000030100F0B080002B80F2D180B4EB020E71
:100EC00068EB030839F93A30C7E902E8002B96DBF2
:100ED000716903EB430201EBC202D2E90270BE4525
:100EE00078EB000C4FEA430289DBB4462CF8083F4C
:100EF0000BE031F93230A446002B0DDB03EB43004D
:100F000001EBC0005A00D0E90270BE451A4478EBEC
:100F1000000001EBC204ECDA29F83A30009BACF88F
:100F20000030B38818043FF56EAF3369EFF31082D9
:100F300072B6D3E8CF0F01210028FAD1C3E8401FD1
:100F40000028F6D1BFF35F8F4FF6FF74B0880023FF
:100F5000316900B2B480C1E88F3F82F310889842B3
:100F6000FFF651AF0746A946746906F1080807EB7A
:100F7000470E04EBCE03D3E90250B6F90830C4465D
:100F8000002B13DBB246009704E034F93630944668
:100F9000002B09DB03EB430604EBC602D2E9027126
:100FA000BD4270EB0101F0DA5646009FACF80070CC
:100FB00034F93E7024F83E30002FD8DAB3794D462C
:100FC000002B3FF424AF0023B371B6F9083006F1CB
:100FD0000808591C3DD01946776903E080465A1C21
:100FE0003FF417AF03EB430207EBC200B0F802C0B7
:100FF0001C461CF4004F9E4637F93230EED08C422E
:1010000080ED028B05D0A8F80030318927F8321026
:1010100034817146E3E739F83A3033813369EFF3CD
:10102000108272B6D3E8CF0F01210028FAD1C3E8AD
:10103000401F0028F6D1BFF35F8F7388316929F80C
:101040003A30009B73800023C1E88F3F82F3108801
:10105000D5E640BF05B0BDEC028BBDE8F08F284659
:10106000CDE9022300F028FA029A039B10EB020E4E
:1010700043EB010826E708460B69029198470028D0
:10108000C9D00299D1E9002311E700BFAFF3008076
:10109000FFFFFFFFFFFFFFFF00800B40A81F0420A2
:1010A00000000B40B90D04202DE9F84F364C25699E
:1010B0002DB1BDE8F84F0A213448FFF731BEDFF803
:1010C000E4800321404600F0E5F90326C4F80C80D3
:1010D000FFF750FB4FF0504C2D4B2670034423611B
:1010E000DCF800300F216370636961801D834FF06D
:1010F0000405A3F878504FF00505A3F890504FF081
:101100000605A3F8A8504FF007050E214FF6FF7211
:1011100008274FF00A0EA3F8C0504FF001094FF016
:101120000C0C4FF0020B4FF0090A0D204FF00B058D
:10113000A3F868111749A280A3F808E1A160A3F8F9
:1011400048B0A3F8F0A0A3F82051A3F838C1A3F841
:101150005001A3F83090A3F86060A3F8D8701A800B
:101160000D4B3046C8F820700C49DC60FFF758FB87
:1011700049463046FFF73EFB094B0A211F640348EE
:10118000BDE8F84FFFF7CCBD641D0420D01F04203C
:10119000481F0420FFFF1000A81F0420B90D0420E1
:1011A00000200B4000000B400146F0B50069EFF352
:1011B000108772B6D0E8CF5F0124002DFAD1C0E8C5
:1011C000454F002DF6D1BFF35F8FB1F902E04C69B6
:1011D0000EEB4E0CBEF1000F4FEACC0504EBCC0C2D
:1011E0003DDB605B002648800869C0E88F6F87F3AD
:1011F0001088BCF80200CCE902230130C0F30E00D5
:10120000012838BF0120059BACF80200CCF8103053
:10121000069B40EA0E40CCF814300B69EFF31082C5
:1012200072B6D3E8CFCF0127BCF1000FF9D1C3E8E4
:101230004C7FBCF1000FF4D1BFF35F8F8B886353F9
:10124000A1F804E00B69C3E88F6F82F310880122D4
:10125000CB68097803F501538A405A60F0BD00233A
:101260000A69C2E88F3F87F310884FF0FF30F0BD66
:1012700003464089B0EB214F37DD58690A1402EB71
:10128000420210B500EBC2001C69EFF3108C72B67D
:10129000D4E8CFEF0122BEF1000FF9D1C4E84E2F00
:1012A000BEF1000FF4D1BFF35F8F428889B292B2D2
:1012B0008A4207D000221B69C3E88F2F8CF3108865
:1012C000002010BD42F40042428001210022186932
:1012D0009971C0E88F2F8CF310881C78DA68084663
:1012E00002F50153A140596010BD0020704700BFB6
:1012F0002DE9F041861F41F1FF35B04271EB050346
:1013000038BF002682B038BF354604460F4600F08D
:10131000DBF8301A65EB0103012873F1000306DAEC
:101320002046394602B0BDE8F04100F0D7B800F0E1
:10133000CBF8864265EB010100290ADB0021174B3F
:101340003246009316482B460191FFF72DFF0028E7
:10135000E6DB4FF0000C1348134A436A9D4204D861
:10136000816AB142DCD29D42DAD11368EFF3108179
:1013700072B6D3E8CF8F5FF0010EB8F1000FF8D14D
:10138000C3E848EFB8F1000FF3D1BFF35F8F1368E4
:10139000C3E88FCF81F3108820BFDEE7790D0420EA
:1013A000641D042000000B40D01F042010B504462B
:1013B00000F08AF84FF47A734FF0FF3C6FF0004270
:1013C000E4FB0301BDE81040844572EB01033CBF20
:1013D00060461146FFF78CBF2DE9F04306460D46E7
:1013E00083B0EFF30584E4B23CB1274B586AA842BE
:1013F0001CD2002003B0BDE8F083244FD7F80C9036
:1014000097F80080484600F057F808F1040859F8AA
:1014100028301B1A301A65EB0101984271F1000166
:1014200011DB20BF184B586AA842E2D39B6AB34233
:1014300003D3012003B0BDE8F083401B18BF012097
:1014400003B0BDE8F08300F03FF8864265EB010190
:101450000029CADB0E4B3846CDE9003432462B4614
:10146000FFF7A2FE011EC0DD074B5A6AAA4208D34D
:101470009B6AB34203D30548FFF7FAFEB5E7AA42D9
:10148000F9D120BFF7E700BF00000B40641D042026
:10149000790D042010B4054B054C064AA04214BF38
:1014A0001846581C5DF8044BFFF738B9701F04202C
:1014B00000800B40881C04200346416A0A46986A53
:1014C000596A8A42FAD17047034B596A0A46986AA8
:1014D000596A9142FAD1704700000B40074A536A9B
:1014E0009942FCD8994207D1044B02E05A6A9142D2
:1014F00002D19A6A8242F9D3704700BF00000B40C4
:1015000000EB400C4FEA8C0C0CF1804C0CF5803C4D
:10151000F0B51646DCF80420051FB2F5803F38BF51
:101520004FF48032EDB238BFCCF80420012D2AD917
:101530004FF40067254C0CF54052176054F82020FA
:10154000B2B9DCF80020012D82EA461202F0E00276
:101550000CF5805632602AD94FF4006144F82030EF
:101560004FF480330CF500521160CCF80430F0BD1C
:101570006769B7FBF2FE0EF1010E0EEB4E0EBEF1E7
:10158000030EFCD2DDE70129D2D103240CF5405231
:101590001460DCF80820D207FBD5DCF800200B4CE7
:1015A00082EA461202F0E0020CF580563260012217
:1015B000DCF800504D4005F00305356002FA01F1FA
:1015C000DCF808200A42FBD0C6E700BF741F0420E5
:1015D000014B53F820007047741F042070B4039D22
:1015E00004682D0345EA03451B4B002CB3FBF1F3C4
:1015F000B2FBF3F61FDB194A194B904214BF4FF4AC
:1016000080424FF40042174C1A6003F580531A6071
:10161000A36832EA0303FBD1212200F540530433CF
:10162000016086601A600268002AFCDA0822C56040
:101630001A6070BC7047036803F03F038B42DAD135
:101640008368C3F30B03B342D5D1C36803F4EE231D
:10165000AB42D0D1EDE700BF001BB70000800540D2
:101660000020024000000240012300EB4000800007
:1016700000F1804000F5841041600360704700BFB6
:101680000023DB8A002242E800F2520201D410213A
:1016900018470421184700BF034AD2F82838002B06
:1016A000FBD0BFF35F8F704700000E400021044B5A
:1016B000044ABFF35F8F43F8041B9342F9D170478C
:1016C0000C080E402C080E4010B44FF48D704FF4EF
:1016D0002A64064A064B07491460D06019605368B3
:1016E000002BFCDA5DF8044B704700BF008004401B
:1016F00000A0044000B0FA00704700BF08B50148E0
:10170000FEF7F4FFAC1C042038B5054C054DAC4287
:1017100004D254F8043B9847AC42FAD338BD00BF1A
:10172000841D0420BC1D042010B40748074C084B3E
:10173000084A094904601A608B6832EA0303FBD146
:101740005DF8044B704700BF002002407F3BEFEF85
:1017500000300240F6FFF30300000240044BDB6C54
:10176000B3F5004F03D14FF48022024BDA64704787
:1017700000001150002011504FF0E022044BD2F82D
:10178000881D0B43C2F8883D10EE3004704700BF3F
:10179000030330006FF06041044B054A1960936801
:1017A000DB4333F06043FAD1704700BF00300240A2
:1017B0000000024010B545F25320FFF761FFBDE87D
:1017C0001040034601201847FEF7E8BF002370B51C
:1017D0002B4C82B0C4F88430FFF776FF0122294BEE
:1017E000DA63636C012BFCD10321264A244B11637D
:1017F0009C6B012CFCD10226052521460523224A9B
:1018000022480096FFF7EAFE21462B46204A21484F
:101810000095FFF7E3FE0022042031461E4BFFF740
:101820006FFE2146284600221C4BFFF769FE00226E
:10183000082011461A4BFFF763FE002209201146CB
:10184000174BFFF75DFE002206201146134BFFF7F2
:1018500057FE0022114B07201146FFF751FE0420CE
:10186000FFF7B6FE00240F4BA3FB0035AD0CE0B232
:1018700029460134FFF7F8FE062CF8D102B070BDFE
:101880000000014000300140002F68590000054071
:10189000008C864700800540001BB70080D1F0080F
:1018A000006CDC0283DE1B4300B9704700F002B914
:1018B00010B5094B84B01C684CB1034600914FF041
:1018C000FF3203A90548A047012004B010BD00F075
:1018D00033F9204604B010BDA41F0420A918042029
:1018E00000BEFDE708B5FFF7FBFF00BF38B5064CAB
:1018F000064DFFF709FFAC4204D254F8043B984769
:10190000AC42FAD338BD00BFBC1D0420BC1D04206E
:101910000368084611461847437D2DE9F047814684
:101920000F461646002B43D0002A3BDD037D0020E6
:101930004D1E014615F8012FDFF884800A2A01F1B7
:1019400001040ED0A6421CD02B782146A3F10D0332
:10195000B3FA83F315F8012F5B090A2A01F1010498
:10196000F0D1002BEED18142A1EB000138441BDC09
:1019700002214046D9F800309847A64208D02046B8
:10198000E2E7864204DD311AD9F80030384498473E
:10199000374417F8013CA3F10D03B3FA83F35B0955
:1019A00089F81430BDE8F087D9F800309847DFE7B0
:1019B0003846D9F800301146BDE8F047184700BF57
:1019C000001D04202DE9F04782B00D46924699464D
:1019D0000746FFF779FD4FF0FF366FF000442F4ABE
:1019E000821841F10003964274EB03013CBF32467A
:1019F00023462B48FEF74EFC6B1C804603D138462D
:101A000000F00AF90546274B274E1C68274BB9F111
:101A1000000F18BF1E46B4B1BAF1000F1AD1DFF89B
:101A2000909001E0246974B12368002BFAD0D9F8B2
:101A300000300BB19C42F5D120462A463946B047CA
:101A40002469002CF0D1B8F1000F1FD1284602B054
:101A5000BDE8F0874FF00A0ADFF8549002E02469ED
:101A6000002CF0D02368002BF9D0D9F800300BB14E
:101A7000A342F4D12A4639462046B04701222046E7
:101A80000DF107018DF807A0B047E8E70448FEF71D
:101A900037FC284602B0BDE8F08700BF40420F0087
:101AA0007C1D04209C1F04201119042019190420F6
:101AB000A01F0420F0B583B006468DF80700FFF79D
:101AC00003FD4FF0FF356FF00044174A821841F1D3
:101AD0000003954274EB03013CBF23462A4613489A
:101AE000FEF7D8FB124B07461C689CB1114D01E074
:101AF00024697CB12368002BFAD02B680BB19C427F
:101B0000F6D1204601220DF10701FFF705FF2469F8
:101B1000002CEFD117B9304603B0F0BD0348FEF7F3
:101B2000EFFB304603B0F0BD40420F007C1D0420A7
:101B30009C1F0420A01F042038B5044600F06CF858
:101B4000012305461A4620462946FFF73BFF084B6E
:101B50001C682CB163682BB198472469002CF9D11B
:101B6000284638BD2469002CF4D1284638BD00BF72
:101B70009C1F042070B5860747D0541E002A3ED013
:101B8000CAB2034601E0013C39D303F8012B9D079B
:101B9000F9D1032C2CD9CDB20F2C05EB052505EB83
:101BA000054535D9A4F1100C03F1100E1A462CF09E
:101BB0000F064FEA1C1CB644C2E90055C2E90255A3
:101BC00010327245F8D10CF1010214F00C0F04F040
:101BD0000F0C03EB021213D0ACF1040323F0030348
:101BE0000433134442F8045B9342FBD10CF003042A
:101BF0002CB1C9B21C4403F8011BA342FBD170BD38
:101C000064461346002CF4D1F9E703461446C0E7B6
:101C10001A46A446E0E700BF20F0030110F00300DD
:101C2000C0F1000051F8043B00F1040C4FEACC0C69
:101C30006FF000021CBF22FA0CF213434FF0010CAC
:101C40004CEA0C2C4CEA0C4CA3EB0C0222EA0302EB
:101C500012EACC1204BF51F8043B0430F4D0C2F1B4
:101C6000000102EA0102B2FA82F2C2F11F0200EBA5
:041C7000D2007047E7
:101C74000A2A2A2A2050414E4943202A2A2A0A00A5
:101C84000A000000486172647761726520616C61CA
:101C9400726D20256420616C726561647920636CC7
:101CA40061696D656400000048617264206173734A
:101CB4006572740052656C6561736500322E322E54
:101CC400300000007069636F3200000064656D6F5E
:101CD4005F67616D65000000417072202039203219
:101CE4003032360006005250D3F07542B81C04203E
:101CF40006005250BBFF3CB6C81C04200D0A00006D
:101D0400E81C042024010420F41C042030010420D5
:041D14003C0104206A
:101D180001100000000000000000010000000000A9
:101D280000000000000002000000000000000000A9
:101D38000000030000000000000000000000FF0099
:101D48000000000001B5486801318E460047704622
:101D580009380149884701BD650C042000000000CE
:101D6800000000000000000000000000000000006B
:101D7800C01D0420000000000000000029170420F6
:101D88005D170420CD17042095170420AD160420F4
:101D9800C9170420991604202D0D0420A910042029
:101DA800F9160420B5170420791704208D0704209C
:041DB800B507042047
:040000052004018151
:00000001FF
