:020000041000EA
:10000000002008205D0100101B0100101D010010E0
:100010001101001011010010110100101101001058
:100020001901001019010010190100101F01001022
:10003000110100101901001021010010230100100E
:100040001101001011010010110100101101001028
:100050001101001011010010110100101101001018
:100060001101001011010010110100101101001008
:1000700011010010110100101101001011010010F8
:1000800011010010110100101101001011010010E8
:1000900011010010110100101101001011010010D8
:1000A00011010010110100101101001011010010C8
:1000B00011010010110100101101001011010010B8
:1000C00011010010110100101101001011010010A8
:1000D0001101001011010010110100101101001098
:1000E0001101001011010010110100101101001088
:1000F0001101001011010010110100101101001078
:100100001101001011010010110100101101001067
:10011000EFF30580103800BE00BE00BE00BE00BE7A
:1001200000BE00BEF2EB88716859001090590010B3
:10013000A001001090A31AE7D3DEFFFF42012110B7
:10014000FF0100003C5D0000793512AB4FF000006C
:100150001E49086006C881F3088810474FF05040D8
:10016000006810B14FF00000F2E70DA40ECC00299A
:1001700002D000F012F8F9E71549164A002000E015
:1001800001C19142FCD11449884714498847144958
:10019000884700BEFDE701C901C29A42FBD3704700
:1001A0009059001010010020F4050020745E00102A
:1001B0000000082000000820745E001000100820D5
:1001C00000100820000000007047000008ED00E06B
:1001D000F4050020BC090020E12E0010750200107B
:1001E000D92E0010F8B500BF0348044B834202D05B
:1001F000034B03B118477047F4050020F4050020B5
:1002000000000000064B0749C91A891048BF013198
:10021000491003D0044B0BB101481847704700BF89
:10022000F4050020F40500200000000010B5064C85
:10023000237843B9FFF7D8FF044B13B10448AFF359
:1002400000800123237010BD78070020000000000B
:100250002838001008B5044B1BB104490448AFF31B
:100260000080BDE80840CDE7000000007C070020CA
:1002700028380010F8B502F05FFF192000F0D2F81E
:100280004FF00106192346EC443005244FF00007D7
:10029000192546EC4050642000F064FE47EC4050C5
:1002A000642000F05FFE013CF2D14FF47A7000F060
:1002B00059FE0A2002F046FF3A4802F085FF3A480C
:1002C00002F082FF374802F07FFF4FF0504337487B
:1002D000196802F0FBFF41F6BC51354802F0F6FF09
:1002E00041F6BC51334A344802F0F0FF41F6BC52AB
:1002F0003249304803F06AF9BFF35F8FBFF36F8F65
:100300002C4B2F4902E0B4F5806F32D01A680134CB
:100310008A4203F10403F6D1A40004F1005404F569
:10032000802424682CB3234D2648294602F0CEFFB2
:100330002968254802F0CAFF2146244802F0C6FF7A
:100340002349244802F0C2FF03F0C8F80A2000F055
:1003500009FE2A4620461E4903F0F4F81E4802F022
:1003600033FF1E4802F030FF4FF47A7000F0FAFDC0
:10037000FAE71B4802F028FF1A4802F025FF19246B
:100380004FF001064FF0000546EC40404FF4FA6094
:1003900000F0E8FD45EC40404FF4FA7000F0E2FD5B
:1003A000F2E700BF283800105438001070380010F1
:1003B0009038001000000420B8380010DC3A00101B
:1003C00047414D4538390010603900108839001018
:1003D00000000820B0390010D8390010F43900109E
:1003E000E43800101839001010B44FF480740C4B2E
:1003F00053F8202003EB8003C00082F0400200F19C
:10040000804003F5805C02F0C00200F5203003F567
:100410004053CCF8002041601C605DF8044B7047ED
:100420000480034030B44FF0000343EC440043EC3D
:10043000400005254FF480740B4BC20053F8201088
:1004400003EB800081F0400102F1804303F520338B
:1004500001F0C00200F5805100F540500A605D6077
:10046000046030BC704700BF048003400FB400B587
:1004700083B0049C074802F0A7FE3CB105A92046C2
:10048000019102F00FFD044802F09EFE012002F0EF
:1004900021FD00BF183A0010283A001070B58646BA
:1004A000EFF3108572B6124CD4E8CF6F0120002E06
:1004B000FAD1C4E8460F002EF6D1BFF35F8F4FF09C
:1004C000010CC80801F007030CFA03F31EF800C082
:1004D0001CEA030608D14CEA030C0EF800C0C4E87D
:1004E0008F6F85F3108870BD1046FFF7BFFF00BF08
:1004F00033090020044A1078431CDBB2182B28BFB4
:1005000010231370704700BF680500204FF0E022F1
:10051000936843F000539360704700BF0021044B81
:1005200003F12002C3E88F1F01339342FAD17047D1
:10053000280900204FF0E0234FF08032C3F8002458
:10054000C3F80424C3F80824C3F80C24C3F8102407
:10055000C3F81424C3F81824C3F81C24C3F82024B7
:10056000C3F82424C3F82824C3F82C24C3F8302467
:1005700062B67047012300F01F029340400941B169
:10058000800000F1604000F56140C0F880310360F8
:100590007047024A203042F82030704700E100E006
:1005A0000123064A410952F8212000F01F00834030
:1005B000134214BF01200020704700BF00E100E09B
:1005C000F8B50D46EFF3108772B6124ED6E8CF2F6E
:1005D0000123002AFAD1C6E8423F002AF6D1BFF330
:1005E0005F8F0D4B00F110049B680C4A53F82430C8
:1005F000934203D0994201D000F010FF064B9B6854
:1006000043F82450BFF35F8F0023C6E88F3F87F382
:100610001088F8BD3109002000ED00E01101001044
:100620002DE9F04F83B0EFF3108A72B6744ED6E81E
:10063000CF2F0123002AFAD1C6E8423F002AF6D183
:10064000BFF35F8F6F4B00F110089B686E4A53F841
:10065000285095423FD08D420C464AD06B4FEB1B41
:100660002F2B38D801214FEA50194FEA890909F197
:10067000604909F5614900F01F0301FA03F0D9F858
:100680000030C9F8800000EA030BBFF35F8FEFF37F
:100690000581C9B279B3884577D125F0010EDEF81E
:1006A00008C0644505D17CE0D3F808C0644532D069
:1006B0009E469EF9062002EB4203002A07EB8303C5
:1006C000F2DA644500F08180BBF1000F20D0C9F858
:1006D0008001C9F800004B4B9B6843F82850BFF3DA
:1006E0005F8F0023C6E88F3F8AF3108803B0BDE810
:1006F000F08F1546EFE725F0010EDEF808C06445DF
:10070000D7D19EF906407346002C08DA154666E0FC
:10071000C9F88000DFE793F90640002C56DB04EBB4
:10072000440C07EB8C0CDCF8082061009A609CF804
:100730000720DA719CF90620002A9A715DDBBCF86B
:100740000420520504D502F5FF1202F5FF521F32B4
:10075000521502F1020C4FF0040E0C2212FB04E2BF
:1007600002EB4C026FF0070C3A44ACEB030C624412
:10077000C2F34A0242F460429A80254B21441A781F
:1007800007EB81011C708A719EE7CDE9000100F042
:1007900045FEDDE9000125F0010EDEF808C06445E4
:1007A00087D19EF906407346002CB8DA194A1A4CD4
:1007B000D21A083AC2F30A316FEA01516FEA1151B5
:1007C00044EA5202DA8099807EE773460029EDD12F
:1007D000FF228EF806204BF60152AEF804200C4C96
:1007E0004AF6AA2294F800C01946C91B49414A4357
:1007F000120D83F806C0227066E74BF60152BBE784
:100800003109002000ED00E0110100106C0500200E
:10081000B8090020A605002000F8FFFFF0B5EFF3AF
:100820000585EDB2EFF3108C72B62649D1E8CF2FD3
:100830000123002AFAD1C1E8423F002AF6D1BFF3D2
:100840005F8F214E40F0010EB4684AF6AA2354F897
:1008500025701E4A0446A41A644163431B0D774564
:100860005BB21BD092F906409C421CD092F9124018
:100870009C4223D092F91E409C4221D092F92A40FA
:100880009C4208BF03240FD0114A0024157813702E
:100890008571C1E88F4F8CF31088F0BDB2680D4CA4
:1008A00042F82540F0E7002404EB440402EB840204
:1008B000FF2494714BF601549480E5E70124F3E79B
:1008C0000224F1E73109002000ED00E06C05002072
:1008D000B809002011010010014B0B440360704760
:1008E0002809002070B5104C104DAC420ED2FF26E6
:1008F000236863B1FFF7FEFD01462046FFF7ECFFDA
:10090000A680BFF35F8F0834AC42F1D370BDFFF710
:10091000F1FD01462046FFF7DFFF2671BFF35F8F31
:100920000834AC42E4D370BDE4050020F405002097
:100930000D4B1A68EFF3108172B6D2E8CFCF0120C9
:10094000BCF1000FF9D1C2E84C0FBCF1000FF4D19B
:10095000BFF35F8F00221B68C3E88F2F81F31088DD
:1009600040BF002000217047AC09002000000000BB
:100970002DE9F04F2DED028B85B0EFF30583DBB24F
:10098000103B9A0818BF01224FF0010103F0030049
:1009900018BFAF4DAF4B08BFAF4D00EB820253F80D
:1009A000226001FA00FB05F541539FEDA78B0190F2
:1009B000C3F804B02EE0B388180440F19280B379F4
:1009C000002B40F0DC80B6F908100029C0F21D8130
:1009D000736901EB410103EBC103D3E90247B7F1AE
:1009E000FF3F08BFB4F1FF3F0DD0019B05EB830132
:1009F000AB6A0A69D21AE31A934203D32B6A13EA49
:100A00000B0F00D10C61284600F032FBA042B94127
:100A1000C0F2FB80B6F90830C5F83CB0002B00935B
:100A2000C9DBD6F8149003EB430A284609EBCA0742
:100A3000D7E9024800F01CFBA04271EB0801BADBC9
:100A4000B8F1000FC0F2C380D7E90431834A934262
:100A500000F0ED807A88B6F9080092B242EA0040D0
:100A6000984702460B4652EA030100F0B080002B83
:100A700080F2D180B4EB020E68EB030839F93A300A
:100A8000C7E902E8002B96DB716903EB430201EB37
:100A9000C202D2E90270BE4578EB000C4FEA430275
:100AA00089DBB4462CF8083F0BE031F93230A4461C
:100AB000002B0DDB03EB430001EBC0005A00D0E933
:100AC0000270BE451A4478EB000001EBC204ECDA78
:100AD00029F83A30009BACF80030B38818043FF591
:100AE0006EAF3369EFF3108272B6D3E8CF0F0121F6
:100AF0000028FAD1C3E8401F0028F6D1BFF35F8F6A
:100B00004FF6FF74B0880023316900B2B480C1E8A9
:100B10008F3F82F310889842FFF651AF0746A946EF
:100B2000746906F1080807EB470E04EBCE03D3E91E
:100B30000250B6F90830C446002B13DBB2460097CA
:100B400004E034F936309446002B09DB03EB43060E
:100B500004EBC602D2E90271BD4270EB0101F0DA8A
:100B60005646009FACF8007034F93E7024F83E30D1
:100B7000002FD8DAB3794D46002B3FF424AF002381
:100B8000B371B6F9083006F10808591C3DD0194672
:100B9000776903E080465A1C3FF417AF03EB43022A
:100BA00007EBC200B0F802C01C461CF4004F9E4682
:100BB00037F93230EED08C4280ED028B05D0A8F8A8
:100BC0000030318927F8321034817146E3E739F873
:100BD0003A3033813369EFF3108272B6D3E8CF0F26
:100BE00001210028FAD1C3E8401F0028F6D1BFF345
:100BF0005F8F7388316929F83A30009B7380002336
:100C0000C1E88F3F82F31088D5E640BF05B0BDEC48
:100C1000028BBDE8F08F2846CDE9022300F028FAC8
:100C2000029A039B10EB020E43EB010826E70846ED
:100C30000B69029198470028C9D00299D1E9002395
:100C400011E700BFAFF30080FFFFFFFFFFFFFFFFD3
:100C500000800B408C09002000000B40710900103F
:100C60002DE9F84F364C25692DB1BDE8F84F0A2122
:100C70003448FFF731BEDFF8E4800321404600F03E
:100C8000E5F90326C4F80C80FFF734FC4FF0504C14
:100C90002D4B267003442361DCF800300F21637074
:100CA000636961801D834FF00405A3F878504FF00D
:100CB0000505A3F890504FF00605A3F8A8504FF093
:100CC00007050E214FF6FF7208274FF00A0EA3F812
:100CD000C0504FF001094FF00C0C4FF0020B4FF0D9
:100CE000090A0D204FF00B05A3F868111749A280DF
:100CF000A3F808E1A160A3F848B0A3F8F0A0A3F816
:100D00002051A3F838C1A3F85001A3F83090A3F8FC
:100D10006060A3F8D8701A800D4B3046C8F8207078
:100D20000C49DC60FFF74CFC49463046FFF722FCDB
:100D3000094B0A211F640348BDE8F84FFFF7CCBDFB
:100D4000B4050020AC09002028090020FFFF100096
:100D50008C0900207109001000200B4000000B409E
:100D60000146F0B50069EFF3108772B6D0E8CF5FA7
:100D70000124002DFAD1C0E8454F002DF6D1BFF374
:100D80005F8FB1F902E04C690EEB4E0CBEF1000F23
:100D90004FEACC0504EBCC0C3DDB605B00264880C1
:100DA0000869C0E88F6F87F31088BCF80200CCE9AF
:100DB00002230130C0F30E00012838BF0120059B3B
:100DC000ACF80200CCF81030069B40EA0E40CCF89C
:100DD00014300B69EFF3108272B6D3E8CFCF01273E
:100DE000BCF1000FF9D1C3E84C7FBCF1000FF4D186
:100DF000BFF35F8F8B886353A1F804E00B69C3E8EE
:100E00008F6F82F310880122CB68097803F50153B4
:100E10008A405A60F0BD00230A69C2E88F3F87F319
:100E200010884FF0FF30F0BD03464089B0EB214FF2
:100E300037DD58690A1402EB420210B500EBC2001C
:100E40001C69EFF3108C72B6D4E8CFEF0122BEF12B
:100E5000000FF9D1C4E84E2FBEF1000FF4D1BFF35B
:100E60005F8F428889B292B28A4207D000221B6902
:100E7000C3E88F2F8CF31088002010BD42F400428D
:100E800042800121002218699971C0E88F2F8CF3EC
:100E900010881C78DA68084602F50153A1405960B1
:100EA00010BD0020704700BF2DE9F041861F41F1C1
:100EB000FF35B04271EB050338BF002682B038BF62
:100EC000354604460F4600F0DBF8301A65EB0103A7
:100ED000012873F1000306DA2046394602B0BDE866
:100EE000F04100F009B900F0CBF8864265EB010152
:100EF00000290ADB0021174B3246009316482B4687
:100F00000191FFF72DFF0028E6DB4FF0000C13489E
:100F1000134A436A9D4204D8816AB142DCD29D42A1
:100F2000DAD11368EFF3108172B6D3E8CF8F5FF098
:100F3000010EB8F1000FF8D1C3E848EFB8F1000F87
:100F4000F3D1BFF35F8F1368C3E88FCF81F31088AD
:100F500020BFDEE731090010B405002000000B407F
:100F6000AC09002010B5044600F08AF84FF47A73FB
:100F70004FF0FF3C6FF00042E4FB0301BDE810407E
:100F8000844572EB01033CBF60461146FFF78CBFFE
:100F90002DE9F04306460D4683B0EFF30584E4B235
:100FA0003CB1274B586AA8421CD2002003B0BDE8D0
:100FB000F083244FD7F80C9097F80080484600F053
:100FC00057F808F1040859F828301B1A301A65EB55
:100FD0000101984271F1000111DB20BF184B586AE2
:100FE000A842E2D39B6AB34203D3012003B0BDE819
:100FF000F083401B18BF012003B0BDE8F08300F070
:101000003FF8864265EB01010029CADB0E4B3846EA
:10101000CDE9003432462B46FFF7A2FE011EC0DDAB
:10102000074B5A6AAA4208D39B6AB34203D30548C6
:10103000FFF7FAFEB5E7AA42F9D120BFF7E700BFF4
:1010400000000B40B40500203109001010B4054B1E
:10105000054C064AA04214BF1846581C5DF8044BC4
:10106000FFF71CBA5009002000800B402C3A0010FA
:101070000346416A0A46986A596A8A42FAD1704719
:10108000034B596A0A46986A596A9142FAD17047E5
:1010900000000B4010B4174A536A9C46946A536A86
:1010A0006345FAD1001959414FF0000228BF0122CF
:1010B0000346CAB10F4B596A4B1C08BF0B4608D0F8
:1010C0004FF0FF310B460B48426A8A42FCD38A42FA
:1010D00007D1084A02E0506A884202D1906A9842D9
:1010E000F9D35DF8044B7047024A526A9142EAD83C
:1010F000EDE700BF00000B40074A536A9942FCD855
:10110000994207D1044B02E05A6A914202D19A6A8D
:101110008242F9D3704700BF00000B40F8B5054686
:1011200006200E4600F0E4F8002842D0354A364842
:10113000954214BF4FF080624FF00062334B344948
:1011400002601A608C6832EA0404FBD12D4B4FF424
:101150008071EB1AB3FA83F32E4A5B09062022F85A
:10116000131000F0C5F8C300B3FBF6F30133DA093E
:1011700020D1402601216962AA622F6BFB0722D48D
:101180002B46002253F82C1F062003F580542260C2
:101190002F6300F0ADF840F2013103228000B0FB74
:1011A000F6F0EB6A83F0700303F07E03236029639B
:1011B000AA64F8BD4FF6FE718A421BD922464FF64B
:1011C000FF71154ED7E740F2013205F540531A631F
:1011D0006B6AAC6A062004EB831400F089F80F4BAD
:1011E000A402A3FB0023DB0A0021B4FBF3F0FFF70A
:1011F00051FFC5E7C3F34503114603EB82161A46B8
:10120000B9E700BF008007400020024000300240E4
:1012100000000240B0090020C0FF3F00757B2B8F0B
:1012200000EB400C4FEA8C0C0CF1804C0CF5803C30
:10123000F0B51646DCF80420051FB2F5803F38BF34
:101240004FF48032EDB238BFCCF80420012D2AD9FA
:101250004FF40067254C0CF54052176054F82020DD
:10126000B2B9DCF80020012D82EA461202F0E00259
:101270000CF5805632602AD94FF4006144F82030D2
:101280004FF480330CF500521160CCF80430F0BDFF
:101290006769B7FBF2FE0EF1010E0EEB4E0EBEF1CA
:1012A000030EFCD2DDE70129D2D103240CF5405214
:1012B0001460DCF80820D207FBD5DCF800200B4CCA
:1012C00082EA461202F0E0020CF5805632600122FA
:1012D000DCF800504D4005F00305356002FA01F1DD
:1012E000DCF808200A42FBD0C6E700BF5409002002
:1012F000014B53F8200070475409002070B4039D3F
:1013000004682D0345EA03451B4B002CB3FBF1F3A6
:10131000B2FBF3F61FDB194A194B904214BF4FF48E
:1013200080424FF40042174C1A6003F580531A6054
:10133000A36832EA0303FBD1212200F540530433B2
:10134000016086601A600268002AFCDA0822C56023
:101350001A6070BC7047036803F03F038B42DAD118
:101360008368C3F30B03B342D5D1C36803F4EE2300
:10137000AB42D0D1EDE700BF001BB70000800540B5
:101380000020024000000240012300EB40008000EA
:1013900000F1804000F5841041600360704700BF99
:1013A0000023DB8A002242E800F2520201D410211D
:1013B00018470421184700BF034AD2F82838002BE9
:1013C000FBD0BFF35F8F704700000E400021044B3D
:1013D000044ABFF35F8F43F8041B9342F9D170476F
:1013E0000C080E402C080E4010B44FF48D704FF4D2
:1013F0002A64064A064B07491460D0601960536896
:10140000002BFCDA5DF8044B704700BF00800440FD
:1014100000A0044000B0FA00704700BF08B50148C2
:10142000FFF724F8503A001038B5054C054DAC4292
:1014300004D254F8043B9847AC42FAD338BD00BFFD
:10144000E03700102038001010B40748074C084B54
:10145000084A094904601A608B6832EA0303FBD129
:101460005DF8044B704700BF002002407F3BEFEF68
:1014700000300240F6FFF30300000240044BDB6C37
:10148000B3F5004F03D14FF48022024BDA6470476A
:1014900000001150002011504FF0E022044BD2F810
:1014A000881D0B43C2F8883D10EE3004704700BF22
:1014B000030330006FF06041044B054A19609368E4
:1014C000DB4333F06043FAD1704700BF0030024085
:1014D0000000024010B545F25320FFF761FFBDE860
:1014E000104003460420184710B545F25320FFF77B
:1014F00057FFBDE81040034601201847FFF70EB81C
:1015000070B51449144C154D641AA610442E324679
:1015100028BF44222846920002F058F8B4F5867F8E
:1015200013D80F4AC6F1440112D02B19480803EB17
:10153000C000C3E9002208338342FAD1CB0704D5A7
:1015400021F00103334445F82320064B9D6070BD14
:101550004323F8E7000000101001001000000020F5
:101560001101001000ED00E0002370B52B4C82B09B
:10157000C4F88430FFF738FF0122294BDA63636C2B
:10158000012BFCD10321264A244B11639C6B012CB7
:10159000FCD10226052521460523224A2248009631
:1015A000FFF7ACFE21462B46204A21480095FFF765
:1015B000A5FE0022042031461E4BFFF731FE2146D6
:1015C000284600221C4BFFF72BFE00220820114664
:1015D0001A4BFFF725FE002209201146174BFFF793
:1015E0001FFE002206201146134BFFF719FE0022B2
:1015F000114B07201146FFF713FE0420FFF778FE7A
:1016000000240F4BA3FB0035AD0CE0B2294601349A
:10161000FFF7BAFE062CF8D102B070BD0000014001
:1016200000300140002F685900000540008C8647BB
:1016300000800540001BB70080D1F008006CDC0280
:1016400083DE1B4386B003B451FC0804CDE90201DC
:1016500051FC0904CDE9040151EC0A04CDE906016D
:1016600003BCF047BDE800504EEC00C4BDE800509C
:101670004EEC01C4BDE800504EEC02C400BD0000B9
:1016800000B5FFF7DFFF02E010FE30F4F8D441ECC4
:10169000100443EC112400EE010410EE010480EE6E
:1016A000200451EC1004704700B5FFF7CBFF02E0B7
:1016B00010FE30F4F8D441EC100443EC112400EE99
:1016C000010410EE210480EE200451EC3004704738
:1016D00000B5FFF7B7FF02E010FE30F4F8D410B504
:1016E00041EC100443EC112451EC040453EC0524A8
:1016F000A0FB024C5FF0000EE0FB03CEE1FB02CE4C
:101700004CEC20440024E1FB03E444EC30E480EEA4
:10171000200451EC5004BDE81040704700B5FFF7BD
:1017200091FF02E010FE30F4F8D441EC100443ECD9
:10173000112451EC2104A0FB01126FEA820252FB3A
:10174000100052FB12F252FB1000A0EBD07C53ECC5
:1017500004245CFB13F153EC1524A1FB022001FBD4
:10176000030053EC4424A2EB000050FB1CF24FEAB0
:10177000111312EB017043EBE27140EA515020EA81
:10178000915020F0070053EC7524A0FB023C53EC71
:10179000752400FB03CC01FB02CC53EC0424ACEB1E
:1017A000824C40EA5C70A0F1010041EC400480EE04
:1017B000200451EC7004704700B5FFF743FF02E0CE
:1017C00010FE30F4F8D440EC700400EE010410EE8A
:1017D000210480EE200451EC3004704700B5FFF77F
:1017E00031FF02E010FE30F4F8D440EC600400EE6B
:1017F000010410EE210480EE200451EC3004704707
:1018000000B5FFF71FFF02E010FE30F4F8D441EC02
:10181000800400EE010410EE010480EE400410EE9E
:101820001304704700B5FFF70DFF02E010FE30F41F
:10183000F8D441EC800400EE010410EE010480EEC7
:10184000400410EE3304704700B5FFF7FBFE02E0E2
:1018500010FE30F4F8D441EC100443EC112400EEF7
:10186000010410EE3004C0F30070704700B5FFF7BC
:10187000E9FE02E010FE30F4F8D443EC102441EC11
:10188000110400EE010410EE30F48CBF01200020A2
:10189000704700BF00B5FFF7D5FE02E010FE30F440
:1018A000F8D441EC100443EC112400EE010410EED6
:1018B00030F42CBF01200020704700BF00B5FFF7B7
:1018C000C1FE02E010FE30F4F8D441EC100443EC09
:1018D000112400EE010410EE30F48CBF0120002032
:1018E000704700BF704700BF2DE9F04F83B09946A5
:1018F000DDE90DAB0F9B884611469A07074616D1C6
:10190000DA453AD20C460D46ABEB0A060E442246A7
:101910004B46414620200134B847B442F7D129460E
:10192000BAF1000F08D1204603B0BDE8F08F0C4695
:10193000BAF1000F10D00E4655460C9B2E449A4427
:101940000191721B4B46013D41461AF8010D344688
:10195000B847002DF5D101990F9B9B07E3D5651A78
:10196000AB45E0D922464B46414620200135B847D9
:101970005D4504F10104F5D3D5E7BAF1000FDAD1E2
:101980000C46D0E72DE9F04F0F9FDDF824E017F06B
:10199000020F0A9C9DF82C900E9DDDE90C8629D142
:1019A000002D6FD1B44225D2202C07F0010B00F09E
:1019B000128104F1FF3C4FF0300AF44401E0202C86
:1019C0007AD00134A6420CF801AFF8D8BBF1000F71
:1019D00010D0AC420ED2202C74D004F1FF3C4FF05A
:1019E000300AF44401E0202C29D00134AC420CF838
:1019F00001AFF8D117F0100F3AD017F4806F28D14B
:101A00001CBBB8F1100F00F0CA80B8F1020F00F053
:101A1000D48030248EF800400124B9F1000F67D142
:101A20007E0740F1AA802B260EF804600134CDE930
:101A30000B57CDE909E4BDE8F04FFFF755BFFC06B1
:101A400040F189807C0535D42024A6426AD0AC427E
:101A500068D0B8F1100F00F08780B8F1020F5AD0AB
:101A6000202CE4D0264601344FF0300C0EF806C08E
:101A7000202CD2D1CDE90B57CDE909E4BDE8F04FD8
:101A8000FFF732BF17F0010B3ED0B9F1000F47D17D
:101A900017F00C0F44D1B4429BD2202C89D1202DB9
:101AA00010D8FC0657D57C0555D4202E00F0B980FF
:101AB000202D10D02024CCE7BBF1000F00F0A58032
:101AC000202DBCD9FC0646D57C0544D4202E00F040
:101AD000A880202D3FD12C461F26B8F1100F7FD0B3
:101AE000B8F1020FC0D14FF0620C0EF806C0B7E794
:101AF0002D260EF804600134CDE90B57CDE909E439
:101B0000BDE8F04FFFF7F0BEB442BFF473AF202C36
:101B10007FF44FAFD6E7202C89D026460134E2E788
:101B2000013DB8E7661ED8D1B8F1100F64D0B8F106
:101B3000020F7FF46EAF62268EF8006030264446B6
:101B40008EF80160B9F1000F3FF46AAFD0E7B8F149
:101B5000100F7FF46CAF2024CDE90B57CDE909E4D9
:101B6000BDE8F04FFFF7C0BEBE060ED4202CF2D069
:101B700078260EF80460013472E73E077FF557AF10
:101B800020260EF80460013451E7202CE3D04FF0FA
:101B9000580C0EEB040686F800C0013460E7BE0660
:101BA00017D558248EF8004030248EF801400224C6
:101BB000B9F1000F3FF434AF9AE762248EF8004089
:101BC00030248EF801400224B9F1000F3FF428AF11
:101BD0008EE77824F2E7BBF1000F7FF462AF71E784
:101BE00017F0200F0CBF4FF0780C4FF0580CA61ECA
:101BF0000EF806C0013C35E7BC06EAD558248EF83D
:101C0000004030248EF80140DDE717F0100F3FF45C
:101C10000EAF17F4806F9AD1202E7FF418AF1F26D5
:101C20005BE734461F2658E700B9704701F08ABACF
:101C300010B1D1E900311847704700BF0000000023
:101C40002DE9F04F9FB09DED287BDDE92AA558ECEA
:101C5000177B83461E460D91109243463A463846FE
:101C600041468DED087B2C9CFFF7F2FD002840F0EB
:101C7000D880384641464FF0FF32754BFFF722FEC1
:101C8000002840F0CE80384641464FF0FF326FF4D6
:101C90008013FFF7EFFD002840F0C380DDE90878EE
:101CA0000022384641460023FFF7E4FD002840F0BB
:101CB000C081CDE90A78DDE90A2390461F4614F475
:101CC000806308BF4FF0060A139304F4006258EAD9
:101CD0000703119240F0C080002A00F0A2819FED1E
:101CE0005A7B00278DED0E7B4FF00009BA45CCBF23
:101CF000AAEB070A4FF0000A4F46C8BF0AF1FF3AA5
:101D000044F480644D4594BF4FF00008A5EB0908EA
:101D100014F00203119304D0B9F1000F18BF4FF073
:101D200000083FB1DDE90A01DDE90E23FFF7FAFC07
:101D3000CDE90A01DDE9080100220023FFF79AFD41
:101D400030B1DDE90A01024601F10043CDE90A2381
:101D50009DED0A7BCDE902A8DDF834A024F40063F0
:101D600004938DED007B334651465846109A00F09F
:101D700097F98046B9F1000F4FD014F0200F0246BA
:101D800000F1010433460CBF652045205146D84779
:101D900009F1FF3087EAE77C0DF1580900224B4634
:101DA000DFF8B080ACEBE77C4FEAD77E01E0202A79
:101DB00010D0E246A8FB0C71C90801EB8107ACEB1F
:101DC00047073037BAF1090F8C4602F1010203F8D8
:101DD000017BECD805230590069300200A230D9F74
:101DE000CDE90330CDE9012E334622463946584627
:101DF000CDF80090FFF7C6FD119B80466BB1109B9C
:101E0000C41AA54209D94246334639462020013436
:101E1000D847A54208F10108F5D840461FB0BDE8F3
:101E2000F08F9DED087B33465846109A0D998DED45
:101E3000287BCDE92B54CDF8A8A01FB0BDE8F04F0A
:101E400000F02EB9AFF30080000000000000000099
:101E5000FFFFEF7FCDCCCCCCC7F30A50A0F2FF3010
:101E6000FFF7AEFC8AA3D3E90023FFF735FC8AA372
:101E7000D3E90023FFF708FCC7F31307CDE90E01F0
:101E800047F07F51404600227B4B41F44011FFF761
:101E90000FFC6BA3D3E90023FFF71EFC02460B46A1
:101EA000DDE90E01FFF7F0FBFFF7AEFC0746FFF799
:101EB00087FC65A3D3E9002380468946FFF70CFC25
:101EC00000226E4BFFF7E0FBFFF79EFC03464946FE
:101ED000404612935EA3D3E90023FFF7FDFB804643
:101EE00012988946FFF76CFC5BA3D3E90023FFF748
:101EF000F3FB02460B4640464946FFF7D9FB024634
:101F00000B4680468946FFF7E7FB42464B46CDE944
:101F10000E0140464946FFF7B7FB0022CDE9140108
:101F2000DDE90E01564BFFF7FDFB0022554BFFF795
:101F3000ABFB02460B46DDE90E01FFF7F3FB002287
:101F4000514BFFF7A1FB02460B46DDE90E01FFF7FF
:101F5000E9FB42464B468046894600204FF08041CF
:101F6000FFF7A6FB02460B4640464946FFF78CFBAF
:101F700002460B46DDE91401FFF7D4FB0022434B78
:101F8000FFF782FB129B002203F2FF3C4FEA0C5347
:101F9000FFF7A2FB80468946DDE90A0142464B462F
:101FA000CDE90E89FFF766FC68BB4346494607F159
:101FB0006302C62A119A8CBF4FF005094FF004093D
:101FC000002A3FF49FAE0B433FF48EAEDDE90A01D9
:101FD00023A3D3E90023FFF761FC48B1DDE90A013F
:101FE00021A3D3E90023FFF745FC00287FF47CAE52
:101FF000BAF1000F3FF486AE139B002B3FF482AE84
:102000000AF1FF3A7EE600221E4B40464946FFF7A2
:1020100089FB0A4601460346CDE90E12013F1146EF
:10202000C5E79FED137B17464FF004098DED0E7B3E
:1020300068E608F100430A970B933CE6AFF3008093
:1020400061436F63A787D23F71A379094F930A4019
:102050001655B5BBB16B0240EF39FAFE422EE63F92
:102060002D431CEBE2361A3F0000000080842E4115
:1020700000000000000000000000F83F0000E03F0A
:1020800000002C4000002440000018400000F03FF9
:10209000FB799F501344D33FB3C8608B288AC63F57
:1020A0002DE9F04F97B0DDE92089CDE90401DDE9A4
:1020B000224BCDE90623404642464B464946DDF8D1
:1020C00090A0FFF7C5FB002840F0C5814046494677
:1020D0004FF0FF326FF48013FFF7CCFB002840F085
:1020E0001D81404649464FF0FF32C14BFFF7EAFBE6
:1020F000002840F0E380B8A3D3E9002340464946D6
:10210000FFF7E0FB002840F0CB80B5A3D3E9002324
:1021100040464946FFF7AEFB002840F0C1804046EC
:10212000494600220023FFF7A5FB002840F0E0808D
:102130001AF480650D9000F0E980092C40F2968138
:102140000EAB1A460C9330210023A4F1090501338C
:10215000202B02F8011BA4EB030600F03A81AB42EE
:10216000F5D19FED9D7B8DED087B49464046FFF7FD
:102170004BFB0446FFF724FB02460B46404649460C
:10218000FFF796FADDE90823FFF7A6FA02460B46A9
:10219000CDE90A23FFF74AFB0746FFF723FB024678
:1021A0000B46DDE90A01FFF783FA02460B46CDE94B
:1021B0000A2300228F4BFFF785FB002800F0DB800D
:1021C00001373846FFF70EFBDDE90823FFF766FB12
:1021D00008B100270134002E40F0B1802046FFF7FF
:1021E000EFFA02460B4640464946FFF761FA0022E5
:1021F000804B06460F46FFF73DFB40B93046394657
:1022000000227C4BFFF75EFB002800F015810C9B41
:10221000691E7948194410E080FB0462C3EBA203F5
:1022200003EB8302A4EB420404F1300201351C46A7
:1022300001F8012F002B00F0AB80202D4FEAE47352
:10224000EAD10AF00303012B1CD1BBF1000F19D016
:102250000D9B002B40F0F9801AF00C0F40F0F58038
:10226000AB4540F2D380202D0BD030220C996B1E51
:102270000B4401355D4503F8012F00F08D80202DC2
:10228000F7D12025DDE90623DDE904010C9CCDE929
:1022900002BA01950094FFF727FB17B0BDE8F08F55
:1022A000CDE92089DDE90623DDE90401CDE923BA82
:1022B000229417B0BDE8F04FFFF7C2BC4F4DCDF8E8
:1022C0008CA00AF0040ABAF1000F4D4C18BF2C463E
:1022D000DDE90623DDE9040120940CBF0324042476
:1022E000CDF888B0219417B0BDE8F04FFFF7FCBAE5
:1022F0004B46424600200021FFF7DAF901231AF489
:102300008065804689460D937FF417AF9FED367B3D
:102310000EAB06268DED087B0C9326E70424DDE941
:102320000623DDE90401374DCDF88CA0CDF888B047
:102330002095219417B0BDE8F04FFFF7D5BA0C9B5C
:10234000681EDFF8C4C018440DE0ACFB0721C908C3
:1023500001EB8102A7EB42023032092F00F8012F76
:1023600027D90F461D46202D05F1010306F1FF3642
:10237000EBD120254BE70022DDE90A011D4BFFF7D9
:1023800079FA00287FF427AF002F5AD1013722E7CE
:102390000AF00303012B75D0202D3FF473AF0D9B82
:1023A000BBB32D2205F158036B4403F8202C0135F3
:1023B00068E7202BDDD0AEB30C9A1E4415443022C2
:1023C00001E0B3422ED00133202B05F8012FF8D1C4
:1023D000CFE71D46C5E600BF0000000065CDCD413A
:1023E0000000000065CDCDC10000000080842E41BA
:1023F000FFFFEF7F0000E03F67666666983A0010D7
:10240000A03A0010A83A0010CDCCCCCC202D3FF43F
:1024100039AF1AF0040F0DD11AF0080F3FF432AFA4
:102420002022BFE72E2103F158026A4402F8201C43
:102430005D1CECE62B22B5E7E3077FF5E8AE01343F
:10244000E5E6FA077FF5C7AEA0E70BF1FF3BAB452A
:102450003FF609AFA0E70324DDE90623DDE9040127
:102460000A4DCDF88CA0CDF888B061E7084B264620
:1024700003EBC40393ED007B0EAB8DED087B0025D1
:102480000C9372E6BBF1000F86D0E1E6A43A00108F
:10249000F05800102DE9F04F9A469BB0249C964DC1
:1024A0000B94964C0B1E18BF834625609AF80000CB
:1024B000934C0A9308BFA3460992002800F0BC82FF
:1024C0004FF000090AE04A46099B0A9909F10109FF
:1024D000D8479AF80000002800F0CE8025280AF19D
:1024E000010AF0D10023524612F8010BA0F120019D
:1024F00010290AD8DFE801F04009093C0909090957
:1025000009090938093409093000A0F13001092905
:1025100040F28C802A2800F0F58000210C912E28B2
:1025200000F099800027A0F1680112292DD8DFE87A
:1025300011F057012C0051012C0045012C002C00FA
:102540002C002C002C002C002C0027002C002C0030
:102550002C002C002C002700924643F00103C2E718
:10256000924643F00203BEE7924643F00403BAE703
:10257000924643F01003B6E7924643F00803B2E7F1
:102580009AF8010043F4807301326728924600F202
:102590008280242840F2C680A0F12502422A00F25F
:1025A000C180DFE812F05F01BF00BF00BF00BF00C5
:1025B000BF00BF00BF00BF00BF00BF00BF00BF0023
:1025C000BF00BF00BF00BF00BF00BF00BF00BF0013
:1025D000BF00BF00BF00BF00BF00BF00BF00BF0003
:1025E000BF00BF00BF00260145012601BF00BF009C
:1025F000BF00BF00BF00BF00BF00BF00BF00BF00E3
:10260000BF00BF00BF00BF00BF00BF00D301BF00BD
:10261000BF00BF00BF00BF00BF00BF00BF00BF00C2
:10262000D3016701D301260145012601002100E005
:10263000013201EB810100EB410110789246A0F1DB
:102640003004092CA1F13001F2D92E280C9102F1AD
:1026500001027FF467AF9AF801001146A0F130063D
:10266000092E43F4806340F231812A2800F03E8134
:1026700092460027013256E74C46099B994501D303
:1026800003F1FF394A460020099B0A99D8472046A2
:102690001BB0BDE8F08FA0F16902D2B20F2A41D879
:1026A000012649F2410196400E4040F001810A2A7C
:1026B0003FD0072A36D10B9C54F8042B002A00F097
:1026C000288143F021010DF1480E704603E0202ED1
:1026D00000F029811A4602F00F052B46092D94BF00
:1026E000303337330F2A00F8013B06F101064FEA79
:1026F0001213ECD817E100BF9524001084090020C4
:10270000E51800100B9C9AF8010054F8045B9246FF
:10271000002DBDBF694243F002030C910C950B9450
:102720000132FCE64A46099B0A9909F10109D8479A
:10273000CFE60B9951F8048B98F800201046002F33
:1027400040F0E18072B16FF0010C0CF1010C4646D3
:10275000C44401E0664503D016F8014F002CF9D1BE
:10276000A6EB080613F4806C02D0BE4228BF3E469A
:1027700013F0020400F08781002A00F02B81BCF1E5
:10278000000F00F041810B940D964A46DDE9095493
:102790000E464F4408E02B462146D84718F8010F53
:1027A00009F1010910B14A464F45F4D131460B9C5D
:1027B0000D9E002C40F00E810B918AE69AF80100E4
:1027C0006C287FF4DFAE9AF8020043F440730AF1FC
:1027D0000302DAE69AF8010043F400730132D4E60A
:1027E0009AF80100682800F0208143F0800301324C
:1027F000CBE6672800F0E780472800F000814528F5
:1028000000F0FF800B9C04930C9B0734CDE902730E
:1028100024F007031C46DDE90931F4E802674A4663
:102820005846CDE900670B94FFF70AFA814650E657
:1028300046280B9C08BF43F0200304930C9B0734ED
:10284000CDE9027324F007031C46DDE90931F4E801
:1028500002674A465846CDE900670B94FFF720FC13
:10286000814636E64A462520099B0A9909F1010965
:10287000D8472EE60B9A9C0702F1040709F10106DE
:1028800040F1E6801078099B4A460A99D8470C9B8C
:10289000012B40F22C81DDE90954994432462B4644
:1028A000214620200136D8474E45F7D10B9710E638
:1028B0006F2800F08B8040F26581782800F0088155
:1028C0004FF00A0823F01003C44647E0002707EB47
:1028D000870700EB4700A0F1300711F8010FA0F1C6
:1028E0003002092AF3D98A464A1C1CE60B9C9AF846
:1028F000020054F8047B0AF1020A0AF101020B9467
:1029000027EAE7770FE6002A3FF42CAF07F1FF3CF8
:102910001BE723F0100113F4806241F021013FF422
:10292000D2AE0DF1480E08231020059300234A462D
:10293000CDE9023006915846DDE90931CDE900E6DE
:102940000497FFF71FF80B948146C2E5582879D009
:10295000622840F051824FF00208C44613F48060B0
:102960006DD123F00C0313F4007240F0C2800B9978
:1029700004310D9113F4807140F02E825E060B9AA3
:1029800040F1AA801278002A40F0DA8023F0100388
:10299000002800F0D58011460DF1480E06930C9BDF
:1029A000CDF80CC0CDE90473019100234A4602938F
:1029B0005846DDE90931CDF800E0FEF7E3FF0D9B55
:1029C00081460B9385E543F400631BE74FF008084D
:1029D000C446C3E70C9B4C46B3427FF6EDAE0F46B0
:1029E0004B44A3EB0609DDE9096522463346294637
:1029F00020200134D8474C45F7D13946DCE643F472
:102A0000006343F02003FDE60F460B94DDE9095413
:102A10004A462B462146D84718F8010F09F101090B
:102A20000028F5D139460B9CC3E69AF8020043F022
:102A3000C0030AF10302A8E5044681461DE623F01F
:102A40000D0390E74FF0100843F02003C44685E7DC
:102A50000C9B012B45D9DDE909544E4609F1FF389D
:102A6000984432462B46214620200136D847464519
:102A7000F7D10C9B324699440B9B1878DDE909315C
:102A8000D8470B9725E50C9BB34240F2EE81CDE988
:102A90000D48DDE9095488464B449E1BCDF82CC0F7
:102AA0004A462B462146202009F10109D847B14565
:102AB000F6D14146DDF838800C9BDDF82CC00D9C2A
:102AC00098F800205E1C1046002A7FF458AE73E68A
:102AD0004FF01008C44641E71D064CBF128812682B
:102AE00051E713464A461878DDE90931D847B1461F
:102AF000DCE60B9C073424F007042246656852F894
:102B0000084B0B9254EA050240F02C8123F010038D
:102B1000002800F0278100260DF1480E06930C9B3B
:102B20004A46CDE904730023CDE900E6CDF80CC098
:102B300002935846DDE90931FEF724FF8146C8E4D7
:102B400013F0200F14BF412061200DF1480E76468E
:102B5000A0F10A0803E020293FF420AF2246B2FB8F
:102B6000FCF40CFB1425E8B2092D00F130058ABFF6
:102B70004044E8B2C0B2624506F8010B01F1010120
:102B8000E9D20BE723F0100269280D9240F06F8123
:102B900013F4806204D04FF4806223F011030D938C
:102BA0000D9B13F4007640D10B9B03F104080D9BA1
:102BB00013F4807040F09880590640F1C6800B9B5A
:102BC00019780C46CB0F002900F0B98022460DF190
:102BD000480E74461646DFF8A0C201E020280FD048
:102BE0003546ACFB0621C90801EB8102A6EB420287
:102BF0003032092D0E4600F1010004F8012BEDD80A
:102C00000D9ACDE9010306920C9ACDE904720A23CC
:102C10004A4603935846DDE90931CDF800E0FEF756
:102C2000B1FECDF82C80814653E40B9C073424F090
:102C3000070421460846636850F8081BDC0F0B9018
:102C400051EA030000F0C3800A46191E48DB134610
:102C50000DF1480EF4460026CDE90E94DFF81882F7
:102C600001E0202E2DD05A1842F10002A8FB025993
:102C700029F0030505EB9905521B1C469B1A61F1CF
:102C8000000508464FF0CC3101FB03F108FB0511AC
:102C9000A3FB08531944052305F00109A9FB0339D7
:102CA0009B180A2C03F130034FEA550570F1000020
:102CB0000CF8013B06F1010645EAC1734FEA5101E8
:102CC000CFD2DDE90E940D9B4A4606930C9BCDE9CD
:102CD0000164CDE904730A23CDF800E0039328E7EB
:102CE000524261EB4101B2E70B9B1968CB0F0029FF
:102CF00000F0AB8081EAE172A2EBE1720DF1480EC7
:102D00007046DFF874C101E0202E10D01546ACFBF0
:102D10000241C90801EB8104A2EB440404F1300232
:102D2000092D00F8012B06F101060A46ECD80D9A90
:102D3000CDE9016306920C9ACDE9047267E7002A97
:102D40003FF445AF0DF1480E5AE713F0800F0B9B8F
:102D500000F08180B3F9001081EAE174A4EBE17422
:102D6000A4B22FE713F0200F14BF412261220DF10E
:102D7000480E0A3ACDE90D97CDF844B000267746C3
:102D8000F3469146CDE90F3C03E0202E17D00446D0
:102D90000D46294642460023204600F015FDD2B2DA
:102DA000092A02F1300388BF02EB09034445DBB274
:102DB00075F1000507F8013B06F10106E5D2DE4694
:102DC000DDE90D97DDE90F3CDDF844B0A6E6002A09
:102DD00047D1134611463BE70B990968A1B923F087
:102DE000100388B10DF1480E06930C9BCDF80CC072
:102DF000CDE904730192D8E513F480627FF4CBAE81
:102E000023F010030D93CBE613F0200F14BF4120E5
:102E100061200DF1480E7646A0F10A0802E0202A52
:102E2000E2D02146B1FBFCF40CFB1415E8B2092DED
:102E300000F130058ABF4044E8B2C0B2614506F8EF
:102E4000010B02F10102EAD2CEE7002A3FF456AFAD
:102E50000DF1480E6BE7196881EAE174A4EBE174A7
:102E6000B0E600260DF1480E2DE701362BE64FF0B7
:102E70000A081346C44671E5CDCCCCCC70B5944657
:102E80001E4605460C4684B04FF0FF32634602A949
:102E900000960348CDE90254FFF7FCFA04B070BD78
:102EA000311C001010B5094B84B01C684CB10346AE
:102EB00000914FF0FF3203A90548A047012004B05C
:102EC00010BD00F081F9204604B010BD8409002037
:102ED000291C001000BEFDE708B5FFF7FBFF00BF8F
:102EE00038B5064C064DFEF79FFAAC4204D254F8B2
:102EF000043B9847AC42FAD338BD00BF20380010DD
:102F0000283800100368084611461847437D2DE90C
:102F1000F04781460F461646002B43D0002A3BDD82
:102F2000037D00204D1E014615F8012FDFF8848037
:102F30000A2A01F101040ED0A6421CD02B782146AA
:102F4000A3F10D03B3FA83F315F8012F5B090A2AE5
:102F500001F10104F0D1002BEED18142A1EB00017F
:102F600038441BDC02214046D9F800309847A6427D
:102F700008D02046E2E7864204DD311AD9F8003055
:102F800038449847374417F8013CA3F10D03B3FACE
:102F900083F35B0989F81430BDE8F087D9F8003075
:102FA0009847DFE73846D9F800301146BDE8F047CA
:102FB000184700BF405900100B682DE9F041802BE5
:102FC0000D46064605D05A1C2B442A601E71BDE8EA
:102FD000F0810F4B1C68A4B10E4F01F1040801E011
:102FE000246974B12368002BFAD03B680BB1A3426B
:102FF000F6D1204641462A68FFF788FF2469002C55
:10300000F0D1002301222B442A601E71BDE8F0811B
:103010007C090020800900202DE9F04782B00D4690
:10302000924699460746FEF72BF84FF0FF366FF0B1
:1030300000442F4A821841F10003964274EB0301C9
:103040003CBF324623462B4800F0C6FB6B1C804633
:1030500003D1384600F036FB0546274B274E1C6847
:10306000274BB9F1000F18BF1E46B4B1BAF1000FDB
:103070001AD1DFF8909001E0246974B12368002B25
:10308000FAD0D9F800300BB19C42F5D120462A463F
:103090003946B0472469002CF0D1B8F1000F1FD198
:1030A000284602B0BDE8F0874FF00A0ADFF85490D6
:1030B00002E02469002CF0D02368002BF9D0D9F865
:1030C00000300BB1A342F4D12A4639462046B0471E
:1030D000012220460DF107018DF807A0B047E8E76F
:1030E000044800F075FB284602B0BDE8F08700BF39
:1030F00040420F00EC0500207C090020052F001045
:103100000D2F0010800900200A4A13684BB183423A
:1031100002D109E0984207D003F110021B69002B8D
:10312000F8D101B1106070470029FCD10369136028
:10313000016170477C09002008B500F0A5F9012065
:1031400008BD00BFF0B583B006468DF80700FDF757
:1031500097FF4FF0FF356FF00044174A821841F196
:103160000003954274EB03013CBF23462A461348F3
:1031700000F032FB124B07461C689CB1114D01E078
:1031800024697CB12368002BFAD02B680BB19C42D8
:10319000F6D1204601220DF10701FFF7B7FE2469A1
:1031A000002CEFD117B9304603B0F0BD034800F052
:1031B0000FFB304603B0F0BD40420F00EC0500208D
:1031C0007C0900208009002038B5044600F07AFA16
:1031D000012305461A4620462946FFF71DFF084BE6
:1031E0001C682CB163682BB198472469002CF9D175
:1031F000284638BD2469002CF4D1284638BD00BFCC
:103200007C0900202DE9F041A2B004460D46FDF7EF
:1032100037FF4FF0FF376FF00046274A821841F121
:103220000003974276EB03013CBF3A4633462348FE
:1032300000F0D2FA00262B4607462246204801A974
:103240000196FFF71BFE019B06467BB91D4B1C68D0
:103250002CB1636843B198472469002CF9D10FBBA6
:10326000304622B0BDE8F0812469F1E7DFF85480F0
:10327000D8F80050EDB1144C01E02D6975B12B6800
:10328000002BFAD023680BB1AB42F6D12846019A45
:1032900002A9FFF73BFE2D69002DF0D1D8F80040C0
:1032A0000195D5E7054800F093FA304622B0BDE815
:1032B000F0810195D3E700BF40420F00EC050020EC
:1032C000B92F00107C090020800900200FB400B540
:1032D00083B004A951F8040B0191FFF793FF03B0E9
:1032E0005DF804EB04B07047B1F1000C1DDD0F4A2E
:1032F0000F4B126830B5D31AB3FA83F30D240D4D7A
:103300005B09411E35F913E08C4411F8010F864525
:1033100006D093699B06FCD461451060F5D130BDA1
:1033200093699D06FCD41460F3E77047B40900204C
:1033300000800740B0090020224BB1F1000C10B40E
:103340001C682EDD034600201F4A591E126893692F
:10335000DB0617D401309369DB06FCD4136884457F
:1033600001F8013FF3D14CB150211346916353F85A
:10337000342F02F0380203F580531A6060465DF87E
:10338000044B70474CB150211346916353F8342FCE
:1033900002F0380203F580531A6078B15DF8044BEF
:1033A00070475CB1084B50211A681346916353F87B
:1033B000342F02F0380203F580531A606FF00200D8
:1033C000ECE700BF48090020B4090020054B1B684A
:1033D00033B10021044A0548126800689163184718
:1033E000704700BF48090020B40900204C090020A4
:1033F000024B1A6893691B07FCD47047B40900207C
:10340000F8B51C4F1C4D3A681C4EAA4214BF21252A
:1034100022250446D6F800C018B1BCF1000F10D028
:10342000F8BDBCF1000FFBD0014690632846FDF7C4
:10343000A1F828461249FDF7F3F8124B34601C60DE
:10344000F8BD0B460F4A0E49306028461360FDF761
:10345000B7F801212846FDF78DF83A685021134648
:10346000916353F8342F02F0380203F580531A6049
:10347000F8BD00BFB40900200080074048090020C3
:10348000CD3300104C09002010B50E490E4C0F48EA
:103490000F4A104B007821600020022112781B781F
:1034A000FCF7A2FF02210120FCF79EFF4FF4E1315F
:1034B0002068FDF733FEBDE8104001210648FFF704
:1034C00023BE00BF00000740B40900208C59001043
:1034D0008859001084590010CC0500204FF08071ED
:1034E000144B154A10B559605368D801FCD5192002
:1034F000FDF756F8002104461920FDF73BF84FF080
:1035000080714FF0000C4FF050420C4B0C4880F88B
:1035100001C05960136DD90703D420BF136DDB07B9
:10352000FBD54FF050432146BDE8104019209B6D5C
:10353000FDF720B800A001400080014000B001402C
:1035400088090020F0B5054687B0192017460E46B9
:10355000FDF726F8002104461920FDF70BF800219D
:10356000CDE9046503970026002701224FF0504360
:103570008C46CDE900670292B9B11A6D9507FCD56A
:10358000596540BF1A6DD00703D420BF1A6DD2070A
:10359000FBD59A6D8A420DD04FF0000C06AA02EBC3
:1035A0008C0252F8181CE7E79A6D1A6DD607FBD407
:1035B00040BFE2E70CF1010CBCF1060FEED1214651
:1035C000192007B0BDE8F040FCF7D4BF844641EABB
:1035D000000313F0030349D1403A23D30B6803607F
:1035E0004B6843608B688360CB68C3600B69036181
:1035F0004B6943618B698361CB69C3610B6A036269
:103600004B6A43628B6A8362CB6AC3620B6B036350
:103610004B6B43638B6B8363CB6BC3634030403135
:10362000403ADBD230320BD30B6803604B68436007
:103630008B688360CB68C36010301031103AF3D2CE
:103640000C3205D351F8043B40F8043B043AF9D25C
:10365000043208D0D2071CBF11F8013B00F8013B2F
:1036600001D30B8803806046704700BF082A13D33C
:103670008B07B1D010F00303AED0C3F10403D21A0C
:10368000DB071CBF11F8013B00F8013BA4D331F864
:10369000023B20F8023B9FE7043AD9D3013A11F8E4
:1036A000013B00F8013BF9D20B7803704B78437073
:1036B0008B78837060467047002301461A4618468F
:1036C00000F042B820F0030110F00300C0F1000048
:1036D00051F8043B00F1040C4FEACC0C6FF00002EF
:1036E0001CBF22FA0CF213434FF0010C4CEA0C2CD5
:1036F0004CEA0C4CA3EB0C0222EA030212EACC12B5
:1037000004BF51F8043B0430F4D0C2F1000102EAD6
:103710000102B2FA82F2C2F11F0200EBD20070473E
:1037200038B5074D074C2C1BA41005D0013C55F8AB
:10373000043D9847002CF9D1BDE8384000F040B86E
:10374000283800102838001070B4164D2C681CB3AF
:1037500065681F2D23DC38B96B1C002002356360BF
:1037600044F8251070BC704704EB850C0228CCF897
:1037700088204FF00102D4F8886102FA05F246EA87
:103780000206C4F88861CCF80831E5D1D4F88C3150
:103790001343C4F88C31DFE7034C2C60D8E74FF0BB
:1037A000FF30DFE72409002094070020024B13B10B
:1037B0000248FFF781BF704700000000213700106A
:1037C000F8B500BF000000005FF800F029020020FB
:1037D0005FF800F0ED0100205FF800F081010020AB
:1037E000D5140010491400107D1400106915001044
:1037F000B5140010CD130010FD140010B913001003
:10380000E508001001150010610C001019140010DB
:10381000E9140010991400100D0500103505001072
:08382000AD3700105502001045
:103828003D3D3D3D3D3D3D3D3D3D3D3D3D3D3D3DC0
:103838003D3D3D3D3D3D3D3D3D3D3D3D3D3D3D3DB0
:103848003D3D3D3D3D3D3D3D3D3D3D0020205250EF
:10385800323335302047616D65204C6F6164657285
:103868002076302E310000005B4C4F414445525DBC
:103878002052756E6E696E67206F6E20636F726579
:103888002025640A000000005B4C4F414445525D0E
:103898002047616D652062696E6172792073697A6B
:1038A800653A2025752062797465730A0000000066
:1038B8005B4C4F414445525D20436F7079696E6798
:1038C80020256C7520627974657320746F203078B8
:1038D800253038582E2E2E0A000000005B4C4F4130
:1038E8004445525D204552524F523A20436F756C01
:1038F80064206E6F742066696E64202747414D45C9
:1039080027206D61676963206865616465722100BD
:103918005B4C4F414445525D204661696C656420AB
:10392800746F206C61756E63682067616D65210036
:103938005B4C4F414445525D2047616D652076657B
:1039480063746F72207461626C65206174203078D2
:10395800253038580A0000005B4C4F414445525D01
:103968002047616D6520696E697469616C205350E8
:103978003A202020203078253038580A00000000EE
:103988005B4C4F414445525D2047616D652063752E
:1039980073746F6D20656E7472793A2020307825C3
:1039A8003038580A000000005B4C4F414445525DD6
:1039B80020436F7265203120737461636B20746FCC
:1039C800703A2020203078253038580A000000004E
:1039D8005B4C4F414445525D20436F726520312056
:1039E8006C61756E63686564210000005B4C4F4133
:1039F8004445525D20456E746572696E67206D6F2F
:103A08006E69746F72206C6F6F702E2E2E0000001E
:103A18000A2A2A2A2050414E4943202A2A2A0A00E3
:103A28000A000000486172647761726520616C6108
:103A3800726D20256420616C726561647920636C05
:103A480061696D6564000000486172642061737388
:103A58006572740052656C6561736500626F6F749E
:103A6800325F77323571303830000000322E322E16
:103A7800300000007069636F320000006C6F616491
:103A880065720000417072202039203230323600D1
:103A9800666E692B00000000666E69006E616E003C
:103AA800666E692D000000005541525420737464FD
:103AB800696E000055415254207374646F75740028
:103AC8005541525420737464696E202F20737464B6
:103AD8006F75740000000820AD0104201B0104204C
:103AE8001D010420110104201101042011010420EA
:103AF80011010420190104201901042019010420CE
:103B08001F010420110104201901042021010420AF
:103B180023010420110104201101042011010420B3
:103B280011010420110104201101042011010420B5
:103B380011010420110104201101042011010420A5
:103B48001101042011010420110104201101042095
:103B58001101042011010420110104201101042085
:103B68001101042011010420110104201101042075
:103B78001101042011010420110104201101042065
:103B88001101042011010420110104201101042055
:103B98001101042011010420110104201101042045
:103BA8001101042011010420110104201101042035
:103BB8001101042011010420110104201101042025
:103BC8001101042011010420110104201101042015
:103BD8001101042011010420110104201101042005
:103BE80011010420EFF30580103800BE00BE00BEAE
:103BF80000BE00BE00BE00BE06005250ABB360530C
:103C0800C01C042006005250861C0302D01C04204D
:103C1800060052505422A29DDC1C0420F2EB88714D
:103C2800041D0420181D0420D801042090A31AE7BD
:103C380047414D45F1030420D3DEFFFF4201211027
:103C48000302000000000420FF0300000000000041
:103C5800793512AB20485FF44041016030EE10F72F
:103C680004D440EC800740EC810740BF002080F37B
:103C78000A881A481A49086006C881F30888104754
:103C88004FF05040006810B14FF00000F2E71549BE
:103C9800154A002000E001C19142FCD11349884730
:103CA800134988471349884700BEFDE7181D0420BB
:103CB800181D0420BC1D0420000008200000082056
:103CC800000008200010082000100820001008201C
:103CD800000000007047000088ED00E000000420AC
:103CE80008ED00E0BC1D0420D81F0420ED180420B6
:103CF80085030420E51804204FF050412DE9F041D8
:103D08000027044616461D46D1F8008009E02368BE
:103D1800C3E88F7F8CF310883046294601F0C6F837
:103D2800F0B92168EFF3108C72B6D1E8CF2F0123D8
:103D3800002AFAD1C1E8423F002AF6D1BFF35F8FCB
:103D480094F904E0BEF1000FE1DA0023226884F858
:103D58000480C2E88F3F8CF310880120BDE8F08111
:103D68000020BDE8F08100BF30B501460468EFF3DC
:103D7800108C72B6D4E8CFEF0125BEF1000FF9D14F
:103D8800C4E84E5FBEF1000FF4D1BFF35F8F90F926
:103D98000440002C11DB00210568C5E88F1F8CF357
:103DA80010884FF0504C9CF900C0A44501D108463A
:103DB80030BDBDE83040FFF79FBF4FF0504000686E
:103DC80000230A680871C2E88F3F8CF3108801202D
:103DD80030BD00BF0368EFF3108272B6D3E8CFCFCF
:103DE8000121BCF1000FF9D1C3E84C1FBCF1000F51
:103DF800F4D1BFF35F8F4FF0FF0C0023016880F808
:103E080004C0C1E88F3F82F3108840BF704700BFED
:103E1800152800D07047F8B501F0C0F84FF0000C35
:103E28000A4C0B4DD4E900670246801B8E460B46B0
:103E380061EB070185427CEB010C06D2054801784D
:103E480081F001010170C4E90023F8BD401F04207E
:103E5800A0860100181D042080B5172000F08CF9F9
:103E680017244FF0010747EC4440152000F084F96F
:103E780015264FF0000545EC44600122304600212C
:103E880000F010F93046012208210C4B00F01EF911
:103E98000B4E337863B147EC4040FA2000F0F0FF56
:103EA80045EC4040FA2000F0EBFF3378002BF2D1CC
:103EB80045EC4040322000F0E3FFEAE73D030420F0
:103EC800181D04200848094A08B5904207D2013A4B
:103ED800121A22F003020021043201F0B5FB01F0AE
:103EE8006FFAFFF7B9FF00BFBC1D0420D81F0420DC
:103EF8004FF050402DE9F84F6549D0F800A0654AC9
:103F0800654B51F82A70BAF1000F0CBF90469846DD
:103F18004FB30026DFF884B1DFF88491F3080C333F
:103F280058F8234035460836CCB114F00F0110D0AC
:103F38005BF82A2005F00703EA40E8089B00D2074F
:103F480001FA03F300F18C0C03D4284649F82C300D
:103F5800B847240905F1010501D0B542E5D3202E63
:103F6800DCD1BDE8F88F4D48F90801F10C0358F889
:103F780023303A460837002B71D013F00F0508D0CC
:103F880050F82A40D440E40703D4454C8C3144F817
:103F98002150190963D011F00F010BD050F82A40B5
:103FA800551CEC40E60705D4EC083D4D09018C345E
:103FB80045F82410190A52D011F00F010BD050F80F
:103FC8002A40951CEC40E40705D4EC08344D09025E
:103FD8008C3445F82410190B41D011F00F0105D08D
:103FE80050F82A40D51CEC40E6073CD5190C36D0D1
:103FF80011F00F0106D0294C54F82A50141DE54041
:10400800ED0737D5190D2AD011F00F0106D0234C32
:1040180054F82A50541DE540EE0732D5190E1ED02B
:1040280011F00F010CD01D4C54F82A50941DE54096
:10403800ED0705D41A4DE40809068C3445F8241018
:104048001B0F02F107020AD050F82A10D140C90705
:1040580005D41349D2081B078C3241F82230202F8F
:1040680082D1BDE8F88FEC080D4D09038C3445F872
:104078002410BBE70A4DE40809048C3445F82410E1
:10408800C0E7074DE40809058C3445F82410C5E756
:10409800681F04204882024090820240C81F042002
:1040A8000080024010B4084CC90041EA820154F86B
:1040B800202004EB8003514003F5805301F00C01EC
:1040C8005DF8044B19607047048003402DE9F04304
:1040D8004FF050491646DFF89C80D9F800201F465B
:1040E80058F8223004460D4683B053B3002F34D01D
:1040F8004FF0504348F822701A681B491B4B002A9E
:1041080018BF0B46E20804F00704A40005FA04F4FB
:10411800A1F5247102F18C0041F8204003EB8203E1
:104128004EB10121152003F500531C6003B0BDE812
:10413800F04300F0C9B803F540531C6003B0BDE874
:10414800F083002FD9D048F8227015201A46084964
:1041580000F000F9D9F80020CFE7152004490192B2
:1041680000F0ECF9019AC3E79082024048820240CD
:104178001D040420681F042030B44FF0000343ECF2
:10418800440043EC400005254FF480740B4BC200FB
:1041980053F8201003EB800081F0400102F18043C6
:1041A80003F5203301F0C00200F5805100F54050BE
:1041B8000A605D60046030BC704700BF0480034043
:1041C8000FB400B583B0049C074801F01FFA3CB156
:1041D80005A92046019101F0D5F8044801F016FA26
:1041E800012001F0E7F800BF741C0420841C04209F
:1041F80070B58646EFF3108572B6124CD4E8CF6FCF
:104208000120002EFAD1C4E8460F002EF6D1BFF3E4
:104218005F8F4FF0010CC80801F007030CFA03F395
:104228001EF800C01CEA030608D14CEA030C0EF87D
:1042380000C0C4E88F6F85F3108870BD1046FFF783
:10424800BFFF00BF531F0420044A1078431CDBB291
:10425800182B28BF10231370704700BF191D0420A6
:104268004FF0E022936843F000539360704700BF1B
:104278000021044B03F12002C3E88F1F013393424E
:10428800FAD17047481F04204FF0E0234FF08032E6
:10429800C3F80024C3F80424C3F80824C3F80C2482
:1042A800C3F81024C3F81424C3F81824C3F81C2432
:1042B800C3F82024C3F82424C3F82824C3F82C24E2
:1042C800C3F8302462B67047012300F01F02934000
:1042D800400941B1800000F1604000F56140C0F83C
:1042E800803103607047024A203042F8203070471E
:1042F80000E100E0F8B50D46EFF3108772B6124EF4
:10430800D6E8CF2F0123002AFAD1C6E8423F002A77
:10431800F6D1BFF35F8F0D4B00F110049B680C4A78
:1043280053F82430934203D0994201D000F050FF53
:10433800064B9B6843F82450BFF35F8F0023C6E801
:104348008F3F87F31088F8BD511F042000ED00E06F
:10435800110104202DE9F04F81468B46164683B0A3
:10436800EFF3108372B6DFF8D0A10093DAE8CF1F1D
:1043780001230029FAD1CAE8413F0029F6D1BFF349
:104388005F8F664B93F90040002CC0F2A080644D0B
:1043980004EB440705EB870898F8061009F11009A3
:1043A8001970604BBF009B6853F829006300411BDC
:1043B8002F292FD95C49884240F0A4801C445B4BCC
:1043C80002372F44043BDB1BC3F34A036FEAC343A2
:1043D8004FF421416FEAD34325F8241005EB8404F8
:1043E80063804BF60153A380FF2348F00100E67178
:1043F800C4F808B0A3714B4B9B6843F82900BFF37E
:104408005F8F0023CAE88F3F009B83F3108803B0B7
:10441800BDE8F08F20F0010E9EF80710B1422ED8AB
:104428004FF42143EB53414BB91C2944043B043757
:104438005B1A2F44AEF104013D4CC91BC1F34A017C
:104448002143A8F80410C3F34A033A492343A8F8C0
:1044580002304AF6AA2073465B1B5B415843000DA5
:1044680088F8076088F80600C8F808B048F0010026
:10447800CEF80010BFE7D179B1422ED996469EF901
:1044880006C00CEB4C02BCF1000F05EB8202F2DA1D
:104498004BF601510EF10402A8F10407BF1AC7F345
:1044A8004A076FEAC7476FEAD7478EF8064003EB1B
:1044B8000408204C05EB8803AEF8047045F8284042
:1044C800998083F806C0DE71C3F808B093E700F05E
:1044D8007FFE124B93F9004059E7724632F8041FE9
:1044E800490514D44915023102EB410101916FF0DD
:1044F8000701C91B019F491B3944C1F34A0141F413
:104508006041C9E7019300F063FE019B56E701F59E
:10451800FF1101F5FF511F31E4E700BFD41F04204C
:104528001C1D042000ED00E0110104204C1D042096
:1045380000E0FFFF01488047511F04202DE9F04F9C
:1045480083B0EFF3108A72B6744ED6E8CF2F0123EA
:10455800002AFAD1C6E8423F002AF6D1BFF35F8F9E
:104568006F4B00F110089B686E4A53F8285095422B
:104578003FD08D420C464AD06B4FEB1B2F2B38D8BF
:1045880001214FEA50194FEA890909F1604909F5F3
:10459800614900F01F0301FA03F0D9F80030C9F8A7
:1045A800800000EA030BBFF35F8FEFF30581C9B208
:1045B80079B3884577D125F0010EDEF808C0644547
:1045C80005D17CE0D3F808C0644532D09E469EF9F8
:1045D800062002EB4203002A07EB8303F2DA644564
:1045E80000F08180BBF1000F20D0C9F88001C9F824
:1045F80000004B4B9B6843F82850BFF35F8F0023A4
:10460800C6E88F3F8AF3108803B0BDE8F08F1546DF
:10461800EFE725F0010EDEF808C06445D7D19EF912
:1046280006407346002C08DA154666E0C9F8800093
:10463800DFE793F90640002C56DB04EB440C07EB4C
:104648008C0CDCF8082061009A609CF80720DA716D
:104658009CF90620002A9A715DDBBCF804205205FB
:1046680004D502F5FF1202F5FF521F32521502F16E
:10467800020C4FF0040E0C2212FB04E202EB4C0277
:104688006FF0070C3A44ACEB030C6244C2F34A02E5
:1046980042F460429A80254B21441A7807EB810145
:1046A8001C708A719EE7CDE9000100F091FDDDE9FB
:1046B800000125F0010EDEF808C0644587D19EF997
:1046C80006407346002CB8DA194A1A4CD21A083A2E
:1046D800C2F30A316FEA01516FEA115144EA5202FA
:1046E800DA8099807EE773460029EDD1FF228EF8A3
:1046F80006204BF60152AEF804200C4C4AF6AA22CA
:1047080094F800C01946C91B49414A43120D83F861
:1047180006C0227066E74BF60152BBE7511F042022
:1047280000ED00E0110104201C1D0420D41F04200A
:10473800561D042000F8FFFFF0B5EFF30585EDB234
:10474800EFF3108C72B62649D1E8CF2F0123002A47
:10475800FAD1C1E8423F002AF6D1BFF35F8F214E5C
:1047680040F0010EB4684AF6AA2354F825701E4A90
:104778000446A41A644163431B0D77455BB21BD002
:1047880092F906409C421CD092F912409C4223D0D8
:1047980092F91E409C4221D092F92A409C4208BFBF
:1047A80003240FD0114A0024157813708571C1E8CD
:1047B8008F4F8CF31088F0BDB2680D4C42F825403D
:1047C800F0E7002404EB440402EB8402FF24947114
:1047D8004BF601549480E5E70124F3E70224F1E75E
:1047E800511F042000ED00E01C1D0420D41F0420EC
:1047F80011010420014B0B4403607047481F04203B
:1048080070B5104C104DAC420ED2FF26236863B130
:10481800FFF71AFD01462046FFF7ECFFA680BFF31D
:104828005F8F0834AC42F1D370BDFFF70DFD014630
:104838002046FFF7DFFF2671BFF35F8F0834AC42D5
:10484800E4D370BD7C1D0420841D04200D4B1A6820
:10485800EFF3108172B6D2E8CFCF0120BCF1000F80
:10486800F9D1C2E84C0FBCF1000FF4D1BFF35F8F50
:1048780000221B68C3E88F2F81F3108840BF0020F7
:1048880000217047D01F0420000000002DE9F04FE0
:104898002DED028B85B0EFF30583DBB2103B9A0850
:1048A80018BF01224FF0010103F0030018BFAF4DFC
:1048B800AF4B08BFAF4D00EB820253F8226001FAFC
:1048C80000FB05F541539FEDA78B0190C3F804B099
:1048D8002EE0B388180440F19280B379002B40F0A1
:1048E800DC80B6F908100029C0F21D81736901EB5C
:1048F800410103EBC103D3E90247B7F1FF3F08BF0A
:10490800B4F1FF3F0DD0019B05EB8301AB6A0A6947
:10491800D21AE31A934203D32B6A13EA0B0F00D17E
:104928000C61284600F032FBA042B941C0F2FB807E
:10493800B6F90830C5F83CB0002B0093C9DBD6F8AF
:10494800149003EB430A284609EBCA07D7E9024843
:1049580000F01CFBA04271EB0801BADBB8F1000FB4
:10496800C0F2C380D7E90431834A934200F0ED8056
:104978007A88B6F9080092B242EA0040984702469F
:104988000B4652EA030100F0B080002B80F2D18080
:10499800B4EB020E68EB030839F93A30C7E902E8CC
:1049A800002B96DB716903EB430201EBC202D2E9EB
:1049B8000270BE4578EB000C4FEA430289DBB4462F
:1049C8002CF8083F0BE031F93230A446002B0DDB00
:1049D80003EB430001EBC0005A00D0E90270BE456A
:1049E8001A4478EB000001EBC204ECDA29F83A30FB
:1049F800009BACF80030B38818043FF56EAF3369FC
:104A0800EFF3108272B6D3E8CF0F01210028FAD154
:104A1800C3E8401F0028F6D1BFF35F8F4FF6FF743D
:104A2800B0880023316900B2B480C1E88F3F82F3B7
:104A380010889842FFF651AF0746A946746906F1F7
:104A4800080807EB470E04EBCE03D3E90250B6F98A
:104A58000830C446002B13DBB246009704E034F953
:104A680036309446002B09DB03EB430604EBC60201
:104A7800D2E90271BD4270EB0101F0DA5646009F9F
:104A8800ACF8007034F93E7024F83E30002FD8DAC4
:104A9800B3794D46002B3FF424AF0023B371B6F928
:104AA800083006F10808591C3DD01946776903E01B
:104AB80080465A1C3FF417AF03EB430207EBC200D2
:104AC800B0F802C01C461CF4004F9E4637F932303D
:104AD800EED08C4280ED028B05D0A8F800303189E9
:104AE80027F8321034817146E3E739F83A303381D8
:104AF8003369EFF3108272B6D3E8CF0F0121002893
:104B0800FAD1C3E8401F0028F6D1BFF35F8F73883E
:104B1800316929F83A30009B73800023C1E88F3F40
:104B280082F31088D5E640BF05B0BDEC028BBDE826
:104B3800F08F2846CDE9022300F028FA029A039B59
:104B480010EB020E43EB010826E708460B690291B9
:104B580098470028C9D00299D1E9002311E700BF7E
:104B6800AFF30080FFFFFFFFFFFFFFFF00800B4058
:104B7800A81F042000000B40B90D04202DE9F84FB0
:104B8800364C25692DB1BDE8F84F0A213448FFF7A6
:104B980031BEDFF8E4800321404600F0E5F9032642
:104BA800C4F80C80FFF750FB4FF0504C2D4B26708B
:104BB80003442361DCF800300F216370636961806E
:104BC8001D834FF00405A3F878504FF00505A3F8AE
:104BD80090504FF00605A3F8A8504FF007050E2196
:104BE8004FF6FF7208274FF00A0EA3F8C0504FF097
:104BF80001094FF00C0C4FF0020B4FF0090A0D2081
:104C08004FF00B05A3F868111749A280A3F808E133
:104C1800A160A3F848B0A3F8F0A0A3F82051A3F826
:104C280038C1A3F85001A3F83090A3F86060A3F846
:104C3800D8701A800D4B3046C8F820700C49DC60DB
:104C4800FFF758FB49463046FFF73EFB094B0A2160
:104C58001F640348BDE8F84FFFF7CCBD641D04206E
:104C6800D01F0420481F0420FFFF1000A81F0420A5
:104C7800B90D042000200B4000000B400146F0B5A0
:104C88000069EFF3108772B6D0E8CF5F0124002DDA
:104C9800FAD1C0E8454F002DF6D1BFF35F8FB1F9C7
:104CA80002E04C690EEB4E0CBEF1000F4FEACC054A
:104CB80004EBCC0C3DDB605B002648800869C0E84B
:104CC8008F6F87F31088BCF80200CCE9022301300B
:104CD800C0F30E00012838BF0120059BACF8020084
:104CE800CCF81030069B40EA0E40CCF814300B6923
:104CF800EFF3108272B6D3E8CFCF0127BCF1000FD3
:104D0800F9D1C3E84C7FBCF1000FF4D1BFF35F8F3A
:104D18008B886353A1F804E00B69C3E88F6F82F3B3
:104D280010880122CB68097803F501538A405A603C
:104D3800F0BD00230A69C2E88F3F87F310884FF05F
:104D4800FF30F0BD03464089B0EB214F37DD58698D
:104D58000A1402EB420210B500EBC2001C69EFF323
:104D6800108C72B6D4E8CFEF0122BEF1000FF9D152
:104D7800C4E84E2FBEF1000FF4D1BFF35F8F428815
:104D880089B292B28A4207D000221B69C3E88F2FEA
:104D98008CF31088002010BD42F4004242800121AB
:104DA800002218699971C0E88F2F8CF310881C783D
:104DB800DA68084602F50153A140596010BD002089
:104DC800704700BF2DE9F041861F41F1FF35B04221
:104DD80071EB050338BF002682B038BF354604465C
:104DE8000F4600F0DBF8301A65EB0103012873F178
:104DF800000306DA2046394602B0BDE8F04100F06B
:104E0800D7B800F0CBF8864265EB010100290ADB30
:104E18000021174B3246009316482B460191FFF7A5
:104E28002DFF0028E6DB4FF0000C1348134A436AB5
:104E38009D4204D8816AB142DCD29D42DAD113681E
:104E4800EFF3108172B6D3E8CF8F5FF0010EB8F19F
:104E5800000FF8D1C3E848EFB8F1000FF3D1BFF362
:104E68005F8F1368C3E88FCF81F3108820BFDEE718
:104E7800790D0420641D042000000B40D01F04207D
:104E880010B5044600F08AF84FF47A734FF0FF3CEF
:104E98006FF00042E4FB0301BDE81040844572EB6B
:104EA80001033CBF60461146FFF78CBF2DE9F04374
:104EB80006460D4683B0EFF30584E4B23CB1274BB8
:104EC800586AA8421CD2002003B0BDE8F083244FE2
:104ED800D7F80C9097F80080484600F057F808F18A
:104EE800040859F828301B1A301A65EB010198425A
:104EF80071F1000111DB20BF184B586AA842E2D3B8
:104F08009B6AB34203D3012003B0BDE8F083401B82
:104F180018BF012003B0BDE8F08300F03FF88642D7
:104F280065EB01010029CADB0E4B3846CDE9003498
:104F380032462B46FFF7A2FE011EC0DD074B5A6A18
:104F4800AA4208D39B6AB34203D30548FFF7FAFE87
:104F5800B5E7AA42F9D120BFF7E700BF00000B4030
:104F6800641D0420790D042010B4054B054C064A35
:104F7800A04214BF1846581C5DF8044BFFF738B917
:104F8800701F042000800B40881C04200346416ADF
:104F98000A46986A596A8A42FAD17047034B596A95
:104FA8000A46986A596A9142FAD1704700000B4044
:104FB800074A536A9942FCD8994207D1044B02E048
:104FC8005A6A914202D19A6A8242F9D3704700BF65
:104FD80000000B4000EB400C4FEA8C0C0CF1804CAD
:104FE8000CF5803CF0B51646DCF80420051FB2F538
:104FF800803F38BF4FF48032EDB238BFCCF8042080
:10500800012D2AD94FF40067254C0CF54052176042
:1050180054F82020B2B9DCF80020012D82EA4612AB
:1050280002F0E0020CF5805632602AD94FF4006194
:1050380044F820304FF480330CF500521160CCF85E
:105048000430F0BD6769B7FBF2FE0EF1010E0EEBFE
:105058004E0EBEF1030EFCD2DDE70129D2D10324A6
:105068000CF540521460DCF80820D207FBD5DCF8B8
:1050780000200B4C82EA461202F0E0020CF5805642
:1050880032600122DCF800504D4005F00305356020
:1050980002FA01F1DCF808200A42FBD0C6E700BF9B
:1050A800741F0420014B53F820007047741F04201C
:1050B80070B4039D04682D0345EA03451B4B002C7F
:1050C800B3FBF1F3B2FBF3F61FDB194A194B90421D
:1050D80014BF4FF480424FF40042174C1A6003F596
:1050E80080531A60A36832EA0303FBD1212200F53A
:1050F80040530433016086601A600268002AFCDAB3
:105108000822C5601A6070BC7047036803F03F034B
:105118008B42DAD18368C3F30B03B342D5D1C3689A
:1051280003F4EE23AB42D0D1EDE700BF001BB7007C
:10513800008005400020024000000240012300EBEF
:105148004000800000F1804000F584104160036059
:10515800704700BF0023DB8A002242E800F25202B7
:1051680001D4102118470421184700BF034AD2F878
:105178002838002BFBD0BFF35F8F704700000E402C
:105188000021044B044ABFF35F8F43F8041B93428A
:10519800F9D170470C080E402C080E4010B44FF49B
:1051A8008D704FF42A64064A064B07491460D06094
:1051B80019605368002BFCDA5DF8044B704700BF98
:1051C8000080044000A0044000B0FA00704700BF0F
:1051D80008B50148FEF7F4FFAC1C042038B5054CAF
:1051E800054DAC4204D254F8043B9847AC42FAD37C
:1051F80038BD00BF841D0420BC1D042010B407481E
:10520800074C084B084A094904601A608B6832EA5F
:105218000303FBD15DF8044B704700BF0020024038
:105228007F3BEFEF00300240F6FFF303000002403F
:10523800044BDB6CB3F5004F03D14FF48022024BD3
:10524800DA64704700001150002011504FF0E0223E
:10525800044BD2F8881D0B43C2F8883D10EE300489
:10526800704700BF030330006FF06041044B054AEC
:1052780019609368DB4333F06043FAD1704700BF8D
:10528800003002400000024010B545F25320FFF7FD
:1052980061FFBDE81040034601201847FEF7E8BF4C
:1052A800002370B52B4C82B0C4F88430FFF776FF2A
:1052B8000122294BDA63636C012BFCD10321264AB6
:1052C800244B11639C6B012CFCD102260525214639
:1052D8000523224A22480096FFF7EAFE21462B467C
:1052E800204A21480095FFF7E3FE002204203146BA
:1052F8001E4BFFF76FFE2146284600221C4BFFF786
:1053080069FE0022082011461A4BFFF763FE0022AF
:1053180009201146174BFFF75DFE002206201146B3
:10532800134BFFF757FE0022114B07201146FFF7DA
:1053380051FE0420FFF7B6FE00240F4BA3FB0035F7
:10534800AD0CE0B229460134FFF7F8FE062CF8D17F
:1053580002B070BD0000014000300140002F6859C4
:1053680000000540008C864700800540001BB70000
:1053780080D1F008006CDC0283DE1B4300B9704763
:1053880000F002B910B5094B84B01C684CB1034653
:1053980000914FF0FF3203A90548A047012004B04F
:1053A80010BD00F033F9204604B010BDA41F04203E
:1053B800A918042000BEFDE708B5FFF7FBFF00BFF2
:1053C80038B5064C064DFFF709FFAC4204D254F835
:1053D800043B9847AC42FAD338BD00BFBC1D04203B
:1053E800BC1D04200368084611461847437D2DE973
:1053F800F04781460F461646002B43D0002A3BDD76
:10540800037D00204D1E014615F8012FDFF884802A
:105418000A2A01F101040ED0A6421CD02B7821469D
:10542800A3F10D03B3FA83F315F8012F5B090A2AD8
:1054380001F10104F0D1002BEED18142A1EB000172
:1054480038441BDC02214046D9F800309847A64270
:1054580008D02046E2E7864204DD311AD9F8003048
:1054680038449847374417F8013CA3F10D03B3FAC1
:1054780083F35B0989F81430BDE8F087D9F8003068
:105488009847DFE73846D9F800301146BDE8F047BD
:10549800184700BF001D04202DE9F04782B00D46D3
:1054A800924699460746FFF779FD4FF0FF366FF0B1
:1054B80000442F4A821841F10003964274EB03011D
:1054C8003CBF324623462B48FEF74EFC6B1C8046F9
:1054D80003D1384600F00AF90546274B274E1C68C9
:1054E800274BB9F1000F18BF1E46B4B1BAF1000F2F
:1054F8001AD1DFF8909001E0246974B12368002B79
:10550800FAD0D9F800300BB19C42F5D120462A4692
:105518003946B0472469002CF0D1B8F1000F1FD1EB
:10552800284602B0BDE8F0874FF00A0ADFF8549029
:1055380002E02469002CF0D02368002BF9D0D9F8B8
:1055480000300BB1A342F4D12A4639462046B04771
:10555800012220460DF107018DF807A0B047E8E7C2
:105568000448FEF737FC284602B0BDE8F08700BFC4
:1055780040420F007C1D04209C1F042011190420A8
:1055880019190420A01F0420F0B583B006468DF831
:105598000700FFF703FD4FF0FF356FF00044174A8F
:1055A800821841F10003954274EB03013CBF234686
:1055B8002A461348FEF7D8FB124B07461C689CB1D5
:1055C800114D01E024697CB12368002BFAD02B68C7
:1055D8000BB19C42F6D1204601220DF10701FFF7DD
:1055E80005FF2469002CEFD117B9304603B0F0BD90
:1055F8000348FEF7EFFB304603B0F0BD40420F0012
:105608007C1D04209C1F0420A01F042038B50446DC
:1056180000F06CF8012305461A4620462946FFF794
:105628003BFF084B1C682CB163682BB19847246971
:10563800002CF9D1284638BD2469002CF4D128461D
:1056480038BD00BF9C1F042070B5860747D0541E84
:10565800002A3ED0CAB2034601E0013C39D303F820
:10566800012B9D07F9D1032C2CD9CDB20F2C05EBBA
:10567800052505EB054535D9A4F1100C03F1100EED
:105688001A462CF00F064FEA1C1CB644C2E9005516
:10569800C2E9025510327245F8D10CF1010214F03A
:1056A8000C0F04F00F0C03EB021213D0ACF104033F
:1056B80023F003030433134442F8045B9342FBD101
:1056C8000CF003042CB1C9B21C4403F8011BA3421B
:1056D800FBD170BD64461346002CF4D1F9E70346AC
:1056E8001446C0E71A46A446E0E700BF20F00301CD
:1056F80010F00300C0F1000051F8043B00F1040C65
:105708004FEACC0C6FF000021CBF22FA0CF21343D4
:105718004FF0010C4CEA0C2C4CEA0C4CA3EB0C029D
:1057280022EA030212EACC1204BF51F8043B043007
:10573800F4D0C2F1000102EA0102B2FA82F2C2F127
:105748001F0200EBD20070470A2A2A2A2050414E35
:105758004943202A2A2A0A000A0000004861726484
:105768007761726520616C61726D20256420616CBF
:10577800726561647920636C61696D65640000001D
:1057880048617264206173736572740052656C6558
:1057980061736500322E322E300000007069636F2D
:1057A8003200000064656D6F5F67616D6500000021
:1057B80041707220203920323032360006005250B3
:1057C800D3F07542B81C042006005250BBFF3CB60B
:1057D800C81C04200D0A0000E81C04202401042031
:1057E800F41C0420300104203C01042001100000B6
:1057F80000000000000001000000000000000000A0
:10580800000002000000000000000000000003008B
:1058180000000000000000000000FF000000000081
:1058280001B5486801318E4600477046093801497C
:10583800884701BD650C042000000000000000003E
:10584800000000000000000000000000C01D04204F
:105858000000000000000000291704205D17042044
:10586800CD17042095170420AD160420C91704206D
:10587800991604202D0D0420A9100420F9160420DF
:10588800B5170420791704208D070420B5070420D4
:1058980006005250D3F075425C3A00100600525090
:1058A800E182887F643A001006005250ABB360531F
:1058B800743A001006005250BBFF3CB67C3A001008
:1058C80006005250861C0302843A0010060052500B
:1058D8005422A29D8C3A001005005250DE65F468EF
:1058E800885E001000000000000000000000F03F8B
:1058F80000000000000024400000000000005940A3
:105908000000000000408F40000000000088C340F5
:1059180000000000006AF8400000000080842E416A
:1059280000000000D01263410000000084D79741B6
:105938000000000065CDCD410D0A00000600525060
:1059480053B4F4A1C83A00100800525012000000E5
:085958000800525092100000FB
:085960006CDCFF7F0100000078
:1059680098580010A4580010B0580010BC580010E7
:10597800C8580010D4580010E058001058590010AA
:085988005059001044590010B1
:105990004FF050412DE9F0410027044616461D46C0
:1059A000D1F8008009E02368C3E88F7F8CF310886A
:1059B0003046294600F014FAF0B92168EFF3108C54
:1059C00072B6D1E8CF2F0123002AFAD1C1E8423FB5
:1059D000002AF6D1BFF35F8F94F904E0BEF1000F07
:1059E000E1DA0023226884F80480C2E88F3F8CF358
:1059F00010880120BDE8F0810020BDE8F08100BFE3
:105A000030B501460468EFF3108C72B6D4E8CFEFDE
:105A10000125BEF1000FF9D1C4E84E5FBEF1000FC1
:105A2000F4D1BFF35F8F90F90440002C11DB00210B
:105A30000568C5E88F1F8CF310884FF0504C9CF917
:105A400000C0A44501D1084630BDBDE83040FFF795
:105A50009FBF4FF05040006800230A680871C2E8F9
:105A60008F3F8CF31088012030BD00BF0368EFF337
:105A7000108272B6D3E8CFCF0121BCF1000FF9D16B
:105A8000C3E84C1FBCF1000FF4D1BFF35F8F4FF0A0
:105A9000FF0C0023016880F804C0C1E88F3F82F347
:105AA000108840BF704700BF53B94AB9002908BFEA
:105AB00000281CBF4FF0FF314FF0FF3000F08CB9D1
:105AC000ADF1080C6DE904CE00F006F8DDF804E055
